{
  "contractName": "PhoenixUnity",
  "abi": [
    {
      "inputs": [],
      "stateMutability": "nonpayable",
      "type": "constructor"
    },
    {
      "anonymous": false,
      "inputs": [
        {
          "indexed": true,
          "internalType": "address",
          "name": "owner",
          "type": "address"
        },
        {
          "indexed": true,
          "internalType": "address",
          "name": "spender",
          "type": "address"
        },
        {
          "indexed": false,
          "internalType": "uint256",
          "name": "value",
          "type": "uint256"
        }
      ],
      "name": "Approval",
      "type": "event"
    },
    {
      "anonymous": false,
      "inputs": [
        {
          "indexed": true,
          "internalType": "address",
          "name": "account",
          "type": "address"
        },
        {
          "indexed": false,
          "internalType": "bool",
          "name": "isExcluded",
          "type": "bool"
        }
      ],
      "name": "ExcludeFromFees",
      "type": "event"
    },
    {
      "anonymous": false,
      "inputs": [
        {
          "indexed": false,
          "internalType": "address[]",
          "name": "accounts",
          "type": "address[]"
        },
        {
          "indexed": false,
          "internalType": "bool",
          "name": "isExcluded",
          "type": "bool"
        }
      ],
      "name": "ExcludeMultipleAccountsFromFees",
      "type": "event"
    },
    {
      "anonymous": false,
      "inputs": [
        {
          "indexed": true,
          "internalType": "uint256",
          "name": "newValue",
          "type": "uint256"
        },
        {
          "indexed": true,
          "internalType": "uint256",
          "name": "oldValue",
          "type": "uint256"
        }
      ],
      "name": "GasForProcessingUpdated",
      "type": "event"
    },
    {
      "anonymous": false,
      "inputs": [
        {
          "indexed": true,
          "internalType": "address",
          "name": "newLiquidityWallet",
          "type": "address"
        },
        {
          "indexed": true,
          "internalType": "address",
          "name": "oldLiquidityWallet",
          "type": "address"
        }
      ],
      "name": "LiquidityWalletUpdated",
      "type": "event"
    },
    {
      "anonymous": false,
      "inputs": [
        {
          "indexed": true,
          "internalType": "address",
          "name": "previousOwner",
          "type": "address"
        },
        {
          "indexed": true,
          "internalType": "address",
          "name": "newOwner",
          "type": "address"
        }
      ],
      "name": "OwnershipTransferred",
      "type": "event"
    },
    {
      "anonymous": false,
      "inputs": [
        {
          "indexed": false,
          "internalType": "uint256",
          "name": "iterations",
          "type": "uint256"
        },
        {
          "indexed": false,
          "internalType": "uint256",
          "name": "claims",
          "type": "uint256"
        },
        {
          "indexed": false,
          "internalType": "uint256",
          "name": "lastProcessedIndex",
          "type": "uint256"
        },
        {
          "indexed": true,
          "internalType": "bool",
          "name": "automatic",
          "type": "bool"
        },
        {
          "indexed": false,
          "internalType": "uint256",
          "name": "gas",
          "type": "uint256"
        },
        {
          "indexed": true,
          "internalType": "address",
          "name": "processor",
          "type": "address"
        }
      ],
      "name": "ProcessedDividendTracker",
      "type": "event"
    },
    {
      "anonymous": false,
      "inputs": [
        {
          "indexed": false,
          "internalType": "uint256",
          "name": "tokensSwapped",
          "type": "uint256"
        },
        {
          "indexed": false,
          "internalType": "uint256",
          "name": "amount",
          "type": "uint256"
        }
      ],
      "name": "SendDividends",
      "type": "event"
    },
    {
      "anonymous": false,
      "inputs": [
        {
          "indexed": true,
          "internalType": "address",
          "name": "pair",
          "type": "address"
        },
        {
          "indexed": true,
          "internalType": "bool",
          "name": "value",
          "type": "bool"
        }
      ],
      "name": "SetAutomatedMarketMakerPair",
      "type": "event"
    },
    {
      "anonymous": false,
      "inputs": [
        {
          "indexed": false,
          "internalType": "uint256",
          "name": "tokensSwapped",
          "type": "uint256"
        },
        {
          "indexed": false,
          "internalType": "uint256",
          "name": "ethReceived",
          "type": "uint256"
        },
        {
          "indexed": false,
          "internalType": "uint256",
          "name": "tokensIntoLiqudity",
          "type": "uint256"
        }
      ],
      "name": "SwapAndLiquify",
      "type": "event"
    },
    {
      "anonymous": false,
      "inputs": [
        {
          "indexed": true,
          "internalType": "address",
          "name": "from",
          "type": "address"
        },
        {
          "indexed": true,
          "internalType": "address",
          "name": "to",
          "type": "address"
        },
        {
          "indexed": false,
          "internalType": "uint256",
          "name": "value",
          "type": "uint256"
        }
      ],
      "name": "Transfer",
      "type": "event"
    },
    {
      "anonymous": false,
      "inputs": [
        {
          "indexed": true,
          "internalType": "address",
          "name": "newAddress",
          "type": "address"
        },
        {
          "indexed": true,
          "internalType": "address",
          "name": "oldAddress",
          "type": "address"
        }
      ],
      "name": "UpdateDividendTracker",
      "type": "event"
    },
    {
      "anonymous": false,
      "inputs": [
        {
          "indexed": true,
          "internalType": "address",
          "name": "newAddress",
          "type": "address"
        },
        {
          "indexed": true,
          "internalType": "address",
          "name": "oldAddress",
          "type": "address"
        }
      ],
      "name": "UpdateUniswapV2Router",
      "type": "event"
    },
    {
      "inputs": [],
      "name": "BNBRewardsFee",
      "outputs": [
        {
          "internalType": "uint256",
          "name": "",
          "type": "uint256"
        }
      ],
      "stateMutability": "view",
      "type": "function"
    },
    {
      "inputs": [
        {
          "internalType": "address",
          "name": "owner",
          "type": "address"
        },
        {
          "internalType": "address",
          "name": "spender",
          "type": "address"
        }
      ],
      "name": "allowance",
      "outputs": [
        {
          "internalType": "uint256",
          "name": "",
          "type": "uint256"
        }
      ],
      "stateMutability": "view",
      "type": "function"
    },
    {
      "inputs": [
        {
          "internalType": "address",
          "name": "spender",
          "type": "address"
        },
        {
          "internalType": "uint256",
          "name": "amount",
          "type": "uint256"
        }
      ],
      "name": "approve",
      "outputs": [
        {
          "internalType": "bool",
          "name": "",
          "type": "bool"
        }
      ],
      "stateMutability": "nonpayable",
      "type": "function"
    },
    {
      "inputs": [
        {
          "internalType": "address",
          "name": "",
          "type": "address"
        }
      ],
      "name": "automatedMarketMakerPairs",
      "outputs": [
        {
          "internalType": "bool",
          "name": "",
          "type": "bool"
        }
      ],
      "stateMutability": "view",
      "type": "function"
    },
    {
      "inputs": [
        {
          "internalType": "address",
          "name": "account",
          "type": "address"
        }
      ],
      "name": "balanceOf",
      "outputs": [
        {
          "internalType": "uint256",
          "name": "",
          "type": "uint256"
        }
      ],
      "stateMutability": "view",
      "type": "function"
    },
    {
      "inputs": [],
      "name": "decimals",
      "outputs": [
        {
          "internalType": "uint8",
          "name": "",
          "type": "uint8"
        }
      ],
      "stateMutability": "view",
      "type": "function"
    },
    {
      "inputs": [
        {
          "internalType": "address",
          "name": "spender",
          "type": "address"
        },
        {
          "internalType": "uint256",
          "name": "subtractedValue",
          "type": "uint256"
        }
      ],
      "name": "decreaseAllowance",
      "outputs": [
        {
          "internalType": "bool",
          "name": "",
          "type": "bool"
        }
      ],
      "stateMutability": "nonpayable",
      "type": "function"
    },
    {
      "inputs": [],
      "name": "dividendTracker",
      "outputs": [
        {
          "internalType": "contract PXUDividendTracker",
          "name": "",
          "type": "address"
        }
      ],
      "stateMutability": "view",
      "type": "function"
    },
    {
      "inputs": [],
      "name": "gasForProcessing",
      "outputs": [
        {
          "internalType": "uint256",
          "name": "",
          "type": "uint256"
        }
      ],
      "stateMutability": "view",
      "type": "function"
    },
    {
      "inputs": [
        {
          "internalType": "address",
          "name": "spender",
          "type": "address"
        },
        {
          "internalType": "uint256",
          "name": "addedValue",
          "type": "uint256"
        }
      ],
      "name": "increaseAllowance",
      "outputs": [
        {
          "internalType": "bool",
          "name": "",
          "type": "bool"
        }
      ],
      "stateMutability": "nonpayable",
      "type": "function"
    },
    {
      "inputs": [],
      "name": "liquidityFee",
      "outputs": [
        {
          "internalType": "uint256",
          "name": "",
          "type": "uint256"
        }
      ],
      "stateMutability": "view",
      "type": "function"
    },
    {
      "inputs": [],
      "name": "liquidityWallet",
      "outputs": [
        {
          "internalType": "address",
          "name": "",
          "type": "address"
        }
      ],
      "stateMutability": "view",
      "type": "function"
    },
    {
      "inputs": [],
      "name": "maxSellTransactionAmount",
      "outputs": [
        {
          "internalType": "uint256",
          "name": "",
          "type": "uint256"
        }
      ],
      "stateMutability": "view",
      "type": "function"
    },
    {
      "inputs": [],
      "name": "name",
      "outputs": [
        {
          "internalType": "string",
          "name": "",
          "type": "string"
        }
      ],
      "stateMutability": "view",
      "type": "function"
    },
    {
      "inputs": [],
      "name": "owner",
      "outputs": [
        {
          "internalType": "address",
          "name": "",
          "type": "address"
        }
      ],
      "stateMutability": "view",
      "type": "function"
    },
    {
      "inputs": [],
      "name": "phxInnovationsFee",
      "outputs": [
        {
          "internalType": "uint256",
          "name": "",
          "type": "uint256"
        }
      ],
      "stateMutability": "view",
      "type": "function"
    },
    {
      "inputs": [],
      "name": "renounceOwnership",
      "outputs": [],
      "stateMutability": "nonpayable",
      "type": "function"
    },
    {
      "inputs": [],
      "name": "stakepoolFee",
      "outputs": [
        {
          "internalType": "uint256",
          "name": "",
          "type": "uint256"
        }
      ],
      "stateMutability": "view",
      "type": "function"
    },
    {
      "inputs": [],
      "name": "swapTokensAtAmount",
      "outputs": [
        {
          "internalType": "uint256",
          "name": "",
          "type": "uint256"
        }
      ],
      "stateMutability": "view",
      "type": "function"
    },
    {
      "inputs": [],
      "name": "symbol",
      "outputs": [
        {
          "internalType": "string",
          "name": "",
          "type": "string"
        }
      ],
      "stateMutability": "view",
      "type": "function"
    },
    {
      "inputs": [],
      "name": "totalFees",
      "outputs": [
        {
          "internalType": "uint256",
          "name": "",
          "type": "uint256"
        }
      ],
      "stateMutability": "view",
      "type": "function"
    },
    {
      "inputs": [],
      "name": "totalSupply",
      "outputs": [
        {
          "internalType": "uint256",
          "name": "",
          "type": "uint256"
        }
      ],
      "stateMutability": "view",
      "type": "function"
    },
    {
      "inputs": [
        {
          "internalType": "address",
          "name": "recipient",
          "type": "address"
        },
        {
          "internalType": "uint256",
          "name": "amount",
          "type": "uint256"
        }
      ],
      "name": "transfer",
      "outputs": [
        {
          "internalType": "bool",
          "name": "",
          "type": "bool"
        }
      ],
      "stateMutability": "nonpayable",
      "type": "function"
    },
    {
      "inputs": [
        {
          "internalType": "address",
          "name": "sender",
          "type": "address"
        },
        {
          "internalType": "address",
          "name": "recipient",
          "type": "address"
        },
        {
          "internalType": "uint256",
          "name": "amount",
          "type": "uint256"
        }
      ],
      "name": "transferFrom",
      "outputs": [
        {
          "internalType": "bool",
          "name": "",
          "type": "bool"
        }
      ],
      "stateMutability": "nonpayable",
      "type": "function"
    },
    {
      "inputs": [
        {
          "internalType": "address",
          "name": "newOwner",
          "type": "address"
        }
      ],
      "name": "transferOwnership",
      "outputs": [],
      "stateMutability": "nonpayable",
      "type": "function"
    },
    {
      "inputs": [],
      "name": "uniswapV2Pair",
      "outputs": [
        {
          "internalType": "address",
          "name": "",
          "type": "address"
        }
      ],
      "stateMutability": "view",
      "type": "function"
    },
    {
      "inputs": [],
      "name": "uniswapV2Router",
      "outputs": [
        {
          "internalType": "contract IUniswapV2Router02",
          "name": "",
          "type": "address"
        }
      ],
      "stateMutability": "view",
      "type": "function"
    },
    {
      "stateMutability": "payable",
      "type": "receive"
    },
    {
      "inputs": [
        {
          "internalType": "address",
          "name": "newAddress",
          "type": "address"
        }
      ],
      "name": "updateDividendTracker",
      "outputs": [],
      "stateMutability": "nonpayable",
      "type": "function"
    },
    {
      "inputs": [
        {
          "internalType": "address",
          "name": "newAddress",
          "type": "address"
        }
      ],
      "name": "updateUniswapV2Router",
      "outputs": [],
      "stateMutability": "nonpayable",
      "type": "function"
    },
    {
      "inputs": [
        {
          "internalType": "address payable",
          "name": "wallet",
          "type": "address"
        }
      ],
      "name": "setPhxInnovationsWallet",
      "outputs": [],
      "stateMutability": "nonpayable",
      "type": "function"
    },
    {
      "inputs": [
        {
          "internalType": "address payable",
          "name": "wallet",
          "type": "address"
        }
      ],
      "name": "setStakePoolWallet",
      "outputs": [],
      "stateMutability": "nonpayable",
      "type": "function"
    },
    {
      "inputs": [
        {
          "internalType": "address",
          "name": "account",
          "type": "address"
        },
        {
          "internalType": "bool",
          "name": "excluded",
          "type": "bool"
        }
      ],
      "name": "excludeFromFees",
      "outputs": [],
      "stateMutability": "nonpayable",
      "type": "function"
    },
    {
      "inputs": [
        {
          "internalType": "address[]",
          "name": "accounts",
          "type": "address[]"
        },
        {
          "internalType": "bool",
          "name": "excluded",
          "type": "bool"
        }
      ],
      "name": "excludeMultipleAccountsFromFees",
      "outputs": [],
      "stateMutability": "nonpayable",
      "type": "function"
    },
    {
      "inputs": [
        {
          "internalType": "address",
          "name": "pair",
          "type": "address"
        },
        {
          "internalType": "bool",
          "name": "value",
          "type": "bool"
        }
      ],
      "name": "setAutomatedMarketMakerPair",
      "outputs": [],
      "stateMutability": "nonpayable",
      "type": "function"
    },
    {
      "inputs": [
        {
          "internalType": "address",
          "name": "newLiquidityWallet",
          "type": "address"
        }
      ],
      "name": "updateLiquidityWallet",
      "outputs": [],
      "stateMutability": "nonpayable",
      "type": "function"
    },
    {
      "inputs": [
        {
          "internalType": "uint256",
          "name": "newValue",
          "type": "uint256"
        }
      ],
      "name": "updateGasForProcessing",
      "outputs": [],
      "stateMutability": "nonpayable",
      "type": "function"
    },
    {
      "inputs": [
        {
          "internalType": "uint256",
          "name": "claimWait",
          "type": "uint256"
        }
      ],
      "name": "updateClaimWait",
      "outputs": [],
      "stateMutability": "nonpayable",
      "type": "function"
    },
    {
      "inputs": [],
      "name": "getClaimWait",
      "outputs": [
        {
          "internalType": "uint256",
          "name": "",
          "type": "uint256"
        }
      ],
      "stateMutability": "view",
      "type": "function"
    },
    {
      "inputs": [],
      "name": "getTotalDividendsDistributed",
      "outputs": [
        {
          "internalType": "uint256",
          "name": "",
          "type": "uint256"
        }
      ],
      "stateMutability": "view",
      "type": "function"
    },
    {
      "inputs": [
        {
          "internalType": "address",
          "name": "account",
          "type": "address"
        }
      ],
      "name": "isExcludedFromFees",
      "outputs": [
        {
          "internalType": "bool",
          "name": "",
          "type": "bool"
        }
      ],
      "stateMutability": "view",
      "type": "function"
    },
    {
      "inputs": [
        {
          "internalType": "address",
          "name": "account",
          "type": "address"
        }
      ],
      "name": "withdrawableDividendOf",
      "outputs": [
        {
          "internalType": "uint256",
          "name": "",
          "type": "uint256"
        }
      ],
      "stateMutability": "view",
      "type": "function"
    },
    {
      "inputs": [
        {
          "internalType": "address",
          "name": "account",
          "type": "address"
        }
      ],
      "name": "dividendTokenBalanceOf",
      "outputs": [
        {
          "internalType": "uint256",
          "name": "",
          "type": "uint256"
        }
      ],
      "stateMutability": "view",
      "type": "function"
    },
    {
      "inputs": [
        {
          "internalType": "address",
          "name": "account",
          "type": "address"
        }
      ],
      "name": "getAccountDividendsInfo",
      "outputs": [
        {
          "internalType": "address",
          "name": "",
          "type": "address"
        },
        {
          "internalType": "int256",
          "name": "",
          "type": "int256"
        },
        {
          "internalType": "int256",
          "name": "",
          "type": "int256"
        },
        {
          "internalType": "uint256",
          "name": "",
          "type": "uint256"
        },
        {
          "internalType": "uint256",
          "name": "",
          "type": "uint256"
        },
        {
          "internalType": "uint256",
          "name": "",
          "type": "uint256"
        },
        {
          "internalType": "uint256",
          "name": "",
          "type": "uint256"
        },
        {
          "internalType": "uint256",
          "name": "",
          "type": "uint256"
        }
      ],
      "stateMutability": "view",
      "type": "function"
    },
    {
      "inputs": [
        {
          "internalType": "uint256",
          "name": "index",
          "type": "uint256"
        }
      ],
      "name": "getAccountDividendsInfoAtIndex",
      "outputs": [
        {
          "internalType": "address",
          "name": "",
          "type": "address"
        },
        {
          "internalType": "int256",
          "name": "",
          "type": "int256"
        },
        {
          "internalType": "int256",
          "name": "",
          "type": "int256"
        },
        {
          "internalType": "uint256",
          "name": "",
          "type": "uint256"
        },
        {
          "internalType": "uint256",
          "name": "",
          "type": "uint256"
        },
        {
          "internalType": "uint256",
          "name": "",
          "type": "uint256"
        },
        {
          "internalType": "uint256",
          "name": "",
          "type": "uint256"
        },
        {
          "internalType": "uint256",
          "name": "",
          "type": "uint256"
        }
      ],
      "stateMutability": "view",
      "type": "function"
    },
    {
      "inputs": [
        {
          "internalType": "uint256",
          "name": "gas",
          "type": "uint256"
        }
      ],
      "name": "processDividendTracker",
      "outputs": [],
      "stateMutability": "nonpayable",
      "type": "function"
    },
    {
      "inputs": [],
      "name": "claim",
      "outputs": [],
      "stateMutability": "nonpayable",
      "type": "function"
    },
    {
      "inputs": [],
      "name": "getPhxInnovationsFeePercent",
      "outputs": [
        {
          "internalType": "uint256",
          "name": "",
          "type": "uint256"
        }
      ],
      "stateMutability": "view",
      "type": "function"
    },
    {
      "inputs": [],
      "name": "getStakePoolFeePercent",
      "outputs": [
        {
          "internalType": "uint256",
          "name": "",
          "type": "uint256"
        }
      ],
      "stateMutability": "view",
      "type": "function"
    },
    {
      "inputs": [],
      "name": "getLastProcessedIndex",
      "outputs": [
        {
          "internalType": "uint256",
          "name": "",
          "type": "uint256"
        }
      ],
      "stateMutability": "view",
      "type": "function"
    },
    {
      "inputs": [],
      "name": "getNumberOfDividendTokenHolders",
      "outputs": [
        {
          "internalType": "uint256",
          "name": "",
          "type": "uint256"
        }
      ],
      "stateMutability": "view",
      "type": "function"
    }
  ],
  "bytecode": "0x610140604052670de0b6b3a764000060095565b5e620f48000600a55600b80546001600160a01b031990811673db00474f085b9fdd15cd6c5f5b6e9752cf983e8517909155600c80549091167354f0bf53be58f734ecd92d74c04aa55994d1ace51790556207a120600d553480156200007757600080fd5b506040518060400160405280600d81526020016c50686f656e697820556e69747960981b8152506040518060400160405280600381526020016250585560e81b8152508160039080519060200190620000d2929190620009ba565b508051620000e8906004906020840190620009ba565b5050506000620000fd620005d160201b60201c565b600580546001600160a01b0319166001600160a01b038316908117909155604051919250906000907f8be0079c531659141344cd1fd0a4f28419497f9722a3daafe3b4186f6b6457e0908290a350600360a0819052600460c081905260e0829052600561010081905282906200019b816200018784818188620005d5602090811b6200216117901c565b620005d560201b620021611790919060201c565b61012052604051620001ad9062000a3f565b604051809103906000f080158015620001ca573d6000803e3d6000fd5b50600780546001600160a01b0319166001600160a01b0392909216919091179055620001f562000637565b600860006101000a8154816001600160a01b0302191690836001600160a01b0316021790555060007310ed43c718714eb63d5aa57b78b54704e256024e90506000816001600160a01b031663c45a01556040518163ffffffff1660e01b815260040160206040518083038186803b1580156200027057600080fd5b505afa15801562000285573d6000803e3d6000fd5b505050506040513d60208110156200029c57600080fd5b5051604080516315ab88c960e31b815290516001600160a01b039283169263c9c653969230929187169163ad5c464891600480820192602092909190829003018186803b158015620002ed57600080fd5b505afa15801562000302573d6000803e3d6000fd5b505050506040513d60208110156200031957600080fd5b5051604080516001600160e01b031960e086901b1681526001600160a01b0393841660048201529290911660248301525160448083019260209291908290030181600087803b1580156200036c57600080fd5b505af115801562000381573d6000803e3d6000fd5b505050506040513d60208110156200039857600080fd5b5051600680546001600160a01b0319166001600160a01b038516179055606081901b6001600160601b0319166080529050620003d681600162000646565b6007546040805163031e79db60e41b81526001600160a01b0390921660048301819052905190916331e79db091602480830192600092919082900301818387803b1580156200042457600080fd5b505af115801562000439573d6000803e3d6000fd5b50506007546040805163031e79db60e41b815230600482015290516001600160a01b0390921693506331e79db0925060248082019260009290919082900301818387803b1580156200048a57600080fd5b505af11580156200049f573d6000803e3d6000fd5b50506007546001600160a01b031691506331e79db09050620004c062000637565b6040518263ffffffff1660e01b815260040180826001600160a01b03168152602001915050600060405180830381600087803b1580156200050057600080fd5b505af115801562000515573d6000803e3d6000fd5b50506007546040805163031e79db60e41b81526001600160a01b03878116600483015291519190921693506331e79db09250602480830192600092919082900301818387803b1580156200056857600080fd5b505af11580156200057d573d6000803e3d6000fd5b50506008546200059b92506001600160a01b03169050600162000779565b620005a830600162000779565b620005c5620005b662000637565b670de0b6b3a7640000620008a6565b50505050505062000a64565b3390565b60008282018381101562000630576040805162461bcd60e51b815260206004820152601b60248201527f536166654d6174683a206164646974696f6e206f766572666c6f770000000000604482015290519081900360640190fd5b9392505050565b6005546001600160a01b031690565b6001600160a01b0382166000908152600f602052604090205460ff1615158115151415620006a65760405162461bcd60e51b815260040180806020018281038252603d815260200180620063e9603d913960400191505060405180910390fd5b6001600160a01b0382166000908152600f60205260409020805460ff191682158015919091179091556200073d576007546040805163031e79db60e41b81526001600160a01b038581166004830152915191909216916331e79db091602480830192600092919082900301818387803b1580156200072357600080fd5b505af115801562000738573d6000803e3d6000fd5b505050505b604051811515906001600160a01b038416907fffa9187bf1f18bf477bd0ea1bcbb64e93b6a98132473929edfce215cd9b16fab90600090a35050565b62000783620005d1565b6005546001600160a01b03908116911614620007e6576040805162461bcd60e51b815260206004820181905260248201527f4f776e61626c653a2063616c6c6572206973206e6f7420746865206f776e6572604482015290519081900360640190fd5b6001600160a01b0382166000908152600e602052604090205460ff1615158115151415620008465760405162461bcd60e51b815260040180806020018281038252602f815260200180620063ba602f913960400191505060405180910390fd5b6001600160a01b0382166000818152600e6020908152604091829020805460ff1916851515908117909155825190815291517f9d8f7706ea1113d1a167b526eca956215946dd36cc7df39eb16180222d8b5df79281900390910190a25050565b6001600160a01b03821662000902576040805162461bcd60e51b815260206004820152601f60248201527f45524332303a206d696e7420746f20746865207a65726f206164647265737300604482015290519081900360640190fd5b6200091060008383620009b5565b6200092c81600254620005d560201b620021611790919060201c565b6002556001600160a01b038216600090815260208181526040909120546200095f91839062002161620005d5821b17901c565b6001600160a01b0383166000818152602081815260408083209490945583518581529351929391927fddf252ad1be2c89b69c2b068fc378daa952ba7f163c4a11628f55a4df523b3ef9281900390910190a35050565b505050565b828054600181600116156101000203166002900490600052602060002090601f016020900481019282601f10620009fd57805160ff191683800117855562000a2d565b8280016001018555821562000a2d579182015b8281111562000a2d57825182559160200191906001019062000a10565b5062000a3b92915062000a4d565b5090565b6123c88062003ff283390190565b5b8082111562000a3b576000815560010162000a4e565b60805160601c60a05160c05160e051610100516101205161350f62000ae360003980610c1f52806124ad528061250e5280612569528061264f525080610ddb5280611234528061258e52508061106c5280611d9d52806125335250806117b652806124d2525080611d6a525080610db75280611832525061350f6000f3fe6080604052600436106102cd5760003560e01c806388bdd9be11610175578063c0246668116100dc578063dd62ed3e11610095578063e7841ec01161006f578063e7841ec014610ac7578063e98030c714610adc578063f27fd25414610b06578063f2fde38b14610b30576102d4565b8063dd62ed3e14610a44578063e2f4560514610a7f578063e37ba8f914610a94576102d4565b8063c024666814610918578063c0df7be314610953578063c492f04614610986578063d01f581614610a05578063d469801614610a1a578063d930007c14610a2f576102d4565b8063a26579ad1161012e578063a26579ad146107ad578063a457c2d7146107c2578063a8b9d240146107fb578063a9059cbb1461082e578063ad56c13c14610867578063b62496f5146108e5576102d4565b806388bdd9be146106eb5780638da5cb5b1461071e57806395d89b411461073357806398118cb4146107485780639a7a23d61461075d5780639c1b8af514610798576102d4565b80634dd40c991161023457806368e8f648116101ed578063715018a6116101c7578063715018a614610664578063720d6838146106795780637848a3af1461068e578063871c128d146106c1576102d4565b806368e8f648146105f2578063700bb1911461060757806370a0823114610631576102d4565b80634dd40c99146105185780634e71d92d1461052d5780634fbee1931461054457806364b0f6531461057757806365b8dbc01461058c5780636843cd84146105bf576102d4565b806323b872dd1161028657806323b872dd146104325780632c1f52161461047557806330bb4cff1461048a578063313ce5671461049f57806339509351146104ca57806349bd5a5e14610503576102d4565b806302259e9e146102d957806306fdde0314610300578063095ea7b31461038a57806313114a9d146103d75780631694505e146103ec57806318160ddd1461041d576102d4565b366102d457005b600080fd5b3480156102e557600080fd5b506102ee610b63565b60408051918252519081900360200190f35b34801561030c57600080fd5b50610315610b69565b6040805160208082528351818301528351919283929083019185019080838360005b8381101561034f578181015183820152602001610337565b50505050905090810190601f16801561037c5780820380516001836020036101000a031916815260200191505b509250505060405180910390f35b34801561039657600080fd5b506103c3600480360360408110156103ad57600080fd5b506001600160a01b038135169060200135610bff565b604080519115158252519081900360200190f35b3480156103e357600080fd5b506102ee610c1d565b3480156103f857600080fd5b50610401610c41565b604080516001600160a01b039092168252519081900360200190f35b34801561042957600080fd5b506102ee610c50565b34801561043e57600080fd5b506103c36004803603606081101561045557600080fd5b506001600160a01b03813581169160208101359091169060400135610c56565b34801561048157600080fd5b50610401610cdd565b34801561049657600080fd5b506102ee610cec565b3480156104ab57600080fd5b506104b4610d62565b6040805160ff9092168252519081900360200190f35b3480156104d657600080fd5b506103c3600480360360408110156104ed57600080fd5b506001600160a01b038135169060200135610d67565b34801561050f57600080fd5b50610401610db5565b34801561052457600080fd5b506102ee610dd9565b34801561053957600080fd5b50610542610dfd565b005b34801561055057600080fd5b506103c36004803603602081101561056757600080fd5b50356001600160a01b0316610e82565b34801561058357600080fd5b506102ee610ea0565b34801561059857600080fd5b50610542600480360360208110156105af57600080fd5b50356001600160a01b0316610ee5565b3480156105cb57600080fd5b506102ee600480360360208110156105e257600080fd5b50356001600160a01b0316610fe7565b3480156105fe57600080fd5b506102ee61106a565b34801561061357600080fd5b506105426004803603602081101561062a57600080fd5b503561108e565b34801561063d57600080fd5b506102ee6004803603602081101561065457600080fd5b50356001600160a01b0316611175565b34801561067057600080fd5b50610542611190565b34801561068557600080fd5b506102ee611232565b34801561069a57600080fd5b50610542600480360360208110156106b157600080fd5b50356001600160a01b0316611256565b3480156106cd57600080fd5b50610542600480360360208110156106e457600080fd5b50356112d0565b3480156106f757600080fd5b506105426004803603602081101561070e57600080fd5b50356001600160a01b03166113ed565b34801561072a57600080fd5b50610401611744565b34801561073f57600080fd5b50610315611753565b34801561075457600080fd5b506102ee6117b4565b34801561076957600080fd5b506105426004803603604081101561078057600080fd5b506001600160a01b03813516906020013515156117d8565b3480156107a457600080fd5b506102ee6118ab565b3480156107b957600080fd5b506102ee6118b1565b3480156107ce57600080fd5b506103c3600480360360408110156107e557600080fd5b506001600160a01b0381351690602001356118f6565b34801561080757600080fd5b506102ee6004803603602081101561081e57600080fd5b50356001600160a01b031661195e565b34801561083a57600080fd5b506103c36004803603604081101561085157600080fd5b506001600160a01b0381351690602001356119af565b34801561087357600080fd5b5061089a6004803603602081101561088a57600080fd5b50356001600160a01b03166119c3565b604080516001600160a01b0390991689526020890197909752878701959095526060870193909352608086019190915260a085015260c084015260e083015251908190036101000190f35b3480156108f157600080fd5b506103c36004803603602081101561090857600080fd5b50356001600160a01b0316611aa3565b34801561092457600080fd5b506105426004803603604081101561093b57600080fd5b506001600160a01b0381351690602001351515611ab8565b34801561095f57600080fd5b506105426004803603602081101561097657600080fd5b50356001600160a01b0316611bce565b34801561099257600080fd5b50610542600480360360408110156109a957600080fd5b8101906020810181356401000000008111156109c457600080fd5b8201836020820111156109d657600080fd5b803590602001918460208302840111640100000000831117156109f857600080fd5b9193509150351515611c48565b348015610a1157600080fd5b506102ee611d68565b348015610a2657600080fd5b50610401611d8c565b348015610a3b57600080fd5b506102ee611d9b565b348015610a5057600080fd5b506102ee60048036036040811015610a6757600080fd5b506001600160a01b0381358116916020013516611dbf565b348015610a8b57600080fd5b506102ee611dea565b348015610aa057600080fd5b5061054260048036036020811015610ab757600080fd5b50356001600160a01b0316611df0565b348015610ad357600080fd5b506102ee611efd565b348015610ae857600080fd5b5061054260048036036020811015610aff57600080fd5b5035611f42565b348015610b1257600080fd5b5061089a60048036036020811015610b2957600080fd5b5035612002565b348015610b3c57600080fd5b5061054260048036036020811015610b5357600080fd5b50356001600160a01b0316612068565b60095481565b60038054604080516020601f6002600019610100600188161502019095169490940493840181900481028201810190925282815260609390929091830182828015610bf55780601f10610bca57610100808354040283529160200191610bf5565b820191906000526020600020905b815481529060010190602001808311610bd857829003601f168201915b5050505050905090565b6000610c13610c0c6121c2565b84846121c6565b5060015b92915050565b7f000000000000000000000000000000000000000000000000000000000000000081565b6006546001600160a01b031681565b60025490565b6000610c638484846122b2565b610cd384610c6f6121c2565b610cce85604051806060016040528060288152602001613302602891396001600160a01b038a16600090815260016020526040812090610cad6121c2565b6001600160a01b0316815260208101919091526040016000205491906128b0565b6121c6565b5060019392505050565b6007546001600160a01b031681565b600754604080516342d359d760e11b815290516000926001600160a01b0316916385a6b3ae916004808301926020929190829003018186803b158015610d3157600080fd5b505afa158015610d45573d6000803e3d6000fd5b505050506040513d6020811015610d5b57600080fd5b5051905090565b600990565b6000610c13610d746121c2565b84610cce8560016000610d856121c2565b6001600160a01b03908116825260208083019390935260409182016000908120918c168152925290205490612161565b7f000000000000000000000000000000000000000000000000000000000000000081565b7f000000000000000000000000000000000000000000000000000000000000000081565b6007546040805163bc4c4b3760e01b815233600482015260006024820181905291516001600160a01b039093169263bc4c4b3792604480840193602093929083900390910190829087803b158015610e5457600080fd5b505af1158015610e68573d6000803e3d6000fd5b505050506040513d6020811015610e7e57600080fd5b5050565b6001600160a01b03166000908152600e602052604090205460ff1690565b600754604080516304ddf6ef60e11b815290516000926001600160a01b0316916309bbedde916004808301926020929190829003018186803b158015610d3157600080fd5b610eed6121c2565b6005546001600160a01b03908116911614610f3d576040805162461bcd60e51b8152602060048201819052602482015260008051602061332a833981519152604482015290519081900360640190fd5b6006546001600160a01b0382811691161415610f8a5760405162461bcd60e51b81526004018080602001828103825260288152602001806132b96028913960400191505060405180910390fd5b6006546040516001600160a01b03918216918316907f8fc842bbd331dfa973645f4ed48b11683d501ebf1352708d77a5da2ab49a576e90600090a3600680546001600160a01b0319166001600160a01b0392909216919091179055565b600754604080516370a0823160e01b81526001600160a01b038481166004830152915160009392909216916370a0823191602480820192602092909190829003018186803b15801561103857600080fd5b505afa15801561104c573d6000803e3d6000fd5b505050506040513d602081101561106257600080fd5b505192915050565b7f000000000000000000000000000000000000000000000000000000000000000081565b600754604080516001624d3b8760e01b03198152600481018490529051600092839283926001600160a01b039092169163ffb2c4799160248082019260609290919082900301818787803b1580156110e557600080fd5b505af11580156110f9573d6000803e3d6000fd5b505050506040513d606081101561110f57600080fd5b5080516020808301516040938401518451848152928301829052828501819052606083018990529351929650945091925032916000917fc864333d6121033635ab41b29ae52f10a22cf4438c3e4f1c4c68518feb2f8a989181900360800190a350505050565b6001600160a01b031660009081526020819052604090205490565b6111986121c2565b6005546001600160a01b039081169116146111e8576040805162461bcd60e51b8152602060048201819052602482015260008051602061332a833981519152604482015290519081900360640190fd5b6005546040516000916001600160a01b0316907f8be0079c531659141344cd1fd0a4f28419497f9722a3daafe3b4186f6b6457e0908390a3600580546001600160a01b0319169055565b7f000000000000000000000000000000000000000000000000000000000000000090565b61125e6121c2565b6005546001600160a01b039081169116146112ae576040805162461bcd60e51b8152602060048201819052602482015260008051602061332a833981519152604482015290519081900360640190fd5b600b80546001600160a01b0319166001600160a01b0392909216919091179055565b6112d86121c2565b6005546001600160a01b03908116911614611328576040805162461bcd60e51b8152602060048201819052602482015260008051602061332a833981519152604482015290519081900360640190fd5b62030d40811015801561133e57506207a1208111155b6113795760405162461bcd60e51b815260040180806020018281038252603981526020018061324f6039913960400191505060405180910390fd5b600d548114156113ba5760405162461bcd60e51b815260040180806020018281038252603181526020018061316b6031913960400191505060405180910390fd5b600d5460405182907f40d7e40e79af4e8e5a9b3c57030d8ea93f13d669c06d448c4d631d4ae7d23db790600090a3600d55565b6113f56121c2565b6005546001600160a01b03908116911614611445576040805162461bcd60e51b8152602060048201819052602482015260008051602061332a833981519152604482015290519081900360640190fd5b6007546001600160a01b03828116911614156114925760405162461bcd60e51b815260040180806020018281038252603281526020018061334a6032913960400191505060405180910390fd5b6000819050306001600160a01b0316816001600160a01b0316638da5cb5b6040518163ffffffff1660e01b815260040160206040518083038186803b1580156114da57600080fd5b505afa1580156114ee573d6000803e3d6000fd5b505050506040513d602081101561150457600080fd5b50516001600160a01b03161461154b5760405162461bcd60e51b81526004018080602001828103825260458152602001806131e46045913960600191505060405180910390fd5b806001600160a01b03166331e79db0826040518263ffffffff1660e01b815260040180826001600160a01b03168152602001915050600060405180830381600087803b15801561159a57600080fd5b505af11580156115ae573d6000803e3d6000fd5b50506040805163031e79db60e41b815230600482015290516001600160a01b03851693506331e79db09250602480830192600092919082900301818387803b1580156115f957600080fd5b505af115801561160d573d6000803e3d6000fd5b50505050806001600160a01b03166331e79db0611628611744565b6040518263ffffffff1660e01b815260040180826001600160a01b03168152602001915050600060405180830381600087803b15801561166757600080fd5b505af115801561167b573d6000803e3d6000fd5b50506006546040805163031e79db60e41b81526001600160a01b039283166004820152905191851693506331e79db0925060248082019260009290919082900301818387803b1580156116cd57600080fd5b505af11580156116e1573d6000803e3d6000fd5b50506007546040516001600160a01b03918216935090851691507f90c7d74461c613da5efa97d90740869367d74ab3aa5837aa4ae9a975f954b7a890600090a3600780546001600160a01b0319166001600160a01b039290921691909117905550565b6005546001600160a01b031690565b60048054604080516020601f6002600019610100600188161502019095169490940493840181900481028201810190925282815260609390929091830182828015610bf55780601f10610bca57610100808354040283529160200191610bf5565b7f000000000000000000000000000000000000000000000000000000000000000081565b6117e06121c2565b6005546001600160a01b03908116911614611830576040805162461bcd60e51b8152602060048201819052602482015260008051602061332a833981519152604482015290519081900360640190fd5b7f00000000000000000000000000000000000000000000000000000000000000006001600160a01b0316826001600160a01b031614156118a15760405162461bcd60e51b815260040180806020018281038252604a81526020018061346b604a913960600191505060405180910390fd5b610e7e8282612947565b600d5481565b60075460408051631bc9e27b60e21b815290516000926001600160a01b031691636f2789ec916004808301926020929190829003018186803b158015610d3157600080fd5b6000610c136119036121c2565b84610cce856040518060600160405280602581526020016134b5602591396001600061192d6121c2565b6001600160a01b03908116825260208083019390935260409182016000908120918d168152925290205491906128b0565b600754604080516302a2e74960e61b81526001600160a01b0384811660048301529151600093929092169163a8b9d24091602480820192602092909190829003018186803b15801561103857600080fd5b6000610c136119bc6121c2565b84846122b2565b600080600080600080600080600760009054906101000a90046001600160a01b03166001600160a01b031663fbcbc0f18a6040518263ffffffff1660e01b815260040180826001600160a01b031681526020019150506101006040518083038186803b158015611a3257600080fd5b505afa158015611a46573d6000803e3d6000fd5b505050506040513d610100811015611a5d57600080fd5b508051602082015160408301516060840151608085015160a086015160c087015160e090970151959e50939c50919a509850965094509092509050919395975091939597565b600f6020526000908152604090205460ff1681565b611ac06121c2565b6005546001600160a01b03908116911614611b10576040805162461bcd60e51b8152602060048201819052602482015260008051602061332a833981519152604482015290519081900360640190fd5b6001600160a01b0382166000908152600e602052604090205460ff1615158115151415611b6e5760405162461bcd60e51b815260040180806020018281038252602f8152602001806133ff602f913960400191505060405180910390fd5b6001600160a01b0382166000818152600e6020908152604091829020805460ff1916851515908117909155825190815291517f9d8f7706ea1113d1a167b526eca956215946dd36cc7df39eb16180222d8b5df79281900390910190a25050565b611bd66121c2565b6005546001600160a01b03908116911614611c26576040805162461bcd60e51b8152602060048201819052602482015260008051602061332a833981519152604482015290519081900360640190fd5b600c80546001600160a01b0319166001600160a01b0392909216919091179055565b611c506121c2565b6005546001600160a01b03908116911614611ca0576040805162461bcd60e51b8152602060048201819052602482015260008051602061332a833981519152604482015290519081900360640190fd5b60005b82811015611cf55781600e6000868685818110611cbc57fe5b602090810292909201356001600160a01b0316835250810191909152604001600020805460ff1916911515919091179055600101611ca3565b507f7fdaf542373fa84f4ee8d662c642f44e4c2276a217d7d29e548b6eb29a233b35838383604051808060200183151581526020018281038252858582818152602001925060200280828437600083820152604051601f909101601f1916909201829003965090945050505050a1505050565b7f000000000000000000000000000000000000000000000000000000000000000081565b6008546001600160a01b031681565b7f000000000000000000000000000000000000000000000000000000000000000090565b6001600160a01b03918216600090815260016020908152604080832093909416825291909152205490565b600a5481565b611df86121c2565b6005546001600160a01b03908116911614611e48576040805162461bcd60e51b8152602060048201819052602482015260008051602061332a833981519152604482015290519081900360640190fd5b6008546001600160a01b0382811691161415611e955760405162461bcd60e51b81526004018080602001828103825260318152602001806132886031913960400191505060405180910390fd5b611ea0816001611ab8565b6008546040516001600160a01b03918216918316907f6080503d1da552ae8eb4b7b8a20245d9fabed014180510e7d1a05ea08fdb0f3e90600090a3600880546001600160a01b0319166001600160a01b0392909216919091179055565b6007546040805163039e107b60e61b815290516000926001600160a01b03169163e7841ec0916004808301926020929190829003018186803b158015610d3157600080fd5b611f4a6121c2565b6005546001600160a01b03908116911614611f9a576040805162461bcd60e51b8152602060048201819052602482015260008051602061332a833981519152604482015290519081900360640190fd5b6007546040805163e98030c760e01b81526004810184905290516001600160a01b039092169163e98030c79160248082019260009290919082900301818387803b158015611fe757600080fd5b505af1158015611ffb573d6000803e3d6000fd5b5050505050565b600080600080600080600080600760009054906101000a90046001600160a01b03166001600160a01b0316635183d6fd8a6040518263ffffffff1660e01b8152600401808281526020019150506101006040518083038186803b158015611a3257600080fd5b6120706121c2565b6005546001600160a01b039081169116146120c0576040805162461bcd60e51b8152602060048201819052602482015260008051602061332a833981519152604482015290519081900360640190fd5b6001600160a01b0381166121055760405162461bcd60e51b815260040180806020018281038252602681526020018061319c6026913960400191505060405180910390fd5b6005546040516001600160a01b038084169216907f8be0079c531659141344cd1fd0a4f28419497f9722a3daafe3b4186f6b6457e090600090a3600580546001600160a01b0319166001600160a01b0392909216919091179055565b6000828201838110156121bb576040805162461bcd60e51b815260206004820152601b60248201527f536166654d6174683a206164646974696f6e206f766572666c6f770000000000604482015290519081900360640190fd5b9392505050565b3390565b6001600160a01b03831661220b5760405162461bcd60e51b81526004018080602001828103825260248152602001806133db6024913960400191505060405180910390fd5b6001600160a01b0382166122505760405162461bcd60e51b81526004018080602001828103825260228152602001806131c26022913960400191505060405180910390fd5b6001600160a01b03808416600081815260016020908152604080832094871680845294825291829020859055815185815291517f8c5be1e5ebec7d5bd14f71427d1e84f3dd0314c0f7b2291e5b200ac8c7c3b9259281900390910190a3505050565b6001600160a01b0383166122f75760405162461bcd60e51b815260040180806020018281038252602581526020018061337c6025913960400191505060405180910390fd5b6001600160a01b03821661233c5760405162461bcd60e51b81526004018080602001828103825260238152602001806131486023913960400191505060405180910390fd5b806123525761234d83836000612a75565b6128ab565b600654600160a01b900460ff1615801561238457506001600160a01b0382166000908152600f602052604090205460ff165b801561239e57506006546001600160a01b03848116911614155b80156123c357506001600160a01b0382166000908152600e602052604090205460ff16155b15612409576009548111156124095760405162461bcd60e51b815260040180806020018281038252603a8152602001806133a1603a913960400191505060405180910390fd5b600061241430611175565b600a54909150811080159081906124355750600654600160a01b900460ff16155b801561245a57506001600160a01b0385166000908152600f602052604090205460ff16155b801561247457506008546001600160a01b03868116911614155b801561248e57506008546001600160a01b03858116911614155b156125e5576006805460ff60a01b1916600160a01b17905560006124fc7f00000000000000000000000000000000000000000000000000000000000000006124f6857f0000000000000000000000000000000000000000000000000000000000000000612bd0565b90612c29565b905061250781612c6b565b60006125577f00000000000000000000000000000000000000000000000000000000000000006124f6867f0000000000000000000000000000000000000000000000000000000000000000612bd0565b905061256281612cf1565b60006125b27f00000000000000000000000000000000000000000000000000000000000000006124f6877f0000000000000000000000000000000000000000000000000000000000000000612bd0565b90506125bd81612d48565b60006125c830611175565b90506125d381612d99565b50506006805460ff60a01b1916905550505b6006546001600160a01b0386166000908152600e602052604090205460ff600160a01b90920482161591168061263357506001600160a01b0385166000908152600e602052604090205460ff165b1561263c575060005b80156126c257600061267360646124f6877f0000000000000000000000000000000000000000000000000000000000000000612bd0565b6001600160a01b0387166000908152600f602052604090205490915060ff16156126a9576126a760646124f6876001612bd0565b015b6126b38582612e42565b94506126c0873083612a75565b505b6126cd868686612a75565b6007546001600160a01b031663e30443bc876126e881611175565b6040518363ffffffff1660e01b815260040180836001600160a01b0316815260200182815260200192505050600060405180830381600087803b15801561272e57600080fd5b505af192505050801561273f575060015b506007546001600160a01b031663e30443bc8661275b81611175565b6040518363ffffffff1660e01b815260040180836001600160a01b0316815260200182815260200192505050600060405180830381600087803b1580156127a157600080fd5b505af19250505080156127b2575060015b50600654600160a01b900460ff166128a757600d54600754604080516001624d3b8760e01b031981526004810184905290516001600160a01b039092169163ffb2c479916024808201926060929091908290030181600087803b15801561281857600080fd5b505af192505050801561284c57506040513d606081101561283857600080fd5b508051602082015160409092015190919060015b612855576128a5565b604080518481526020810184905280820183905260608101869052905132916001917fc864333d6121033635ab41b29ae52f10a22cf4438c3e4f1c4c68518feb2f8a989181900360800190a35050505b505b5050505b505050565b6000818484111561293f5760405162461bcd60e51b81526004018080602001828103825283818151815260200191508051906020019080838360005b838110156129045781810151838201526020016128ec565b50505050905090810190601f1680156129315780820380516001836020036101000a031916815260200191505b509250505060405180910390fd5b505050900390565b6001600160a01b0382166000908152600f602052604090205460ff16151581151514156129a55760405162461bcd60e51b815260040180806020018281038252603d81526020018061342e603d913960400191505060405180910390fd5b6001600160a01b0382166000908152600f60205260409020805460ff19168215801591909117909155612a39576007546040805163031e79db60e41b81526001600160a01b038581166004830152915191909216916331e79db091602480830192600092919082900301818387803b158015612a2057600080fd5b505af1158015612a34573d6000803e3d6000fd5b505050505b604051811515906001600160a01b038416907fffa9187bf1f18bf477bd0ea1bcbb64e93b6a98132473929edfce215cd9b16fab90600090a35050565b6001600160a01b038316612aba5760405162461bcd60e51b815260040180806020018281038252602581526020018061337c6025913960400191505060405180910390fd5b6001600160a01b038216612aff5760405162461bcd60e51b81526004018080602001828103825260238152602001806131486023913960400191505060405180910390fd5b612b0a8383836128ab565b612b4781604051806060016040528060268152602001613229602691396001600160a01b03861660009081526020819052604090205491906128b0565b6001600160a01b038085166000908152602081905260408082209390935590841681522054612b769082612161565b6001600160a01b038084166000818152602081815260409182902094909455805185815290519193928716927fddf252ad1be2c89b69c2b068fc378daa952ba7f163c4a11628f55a4df523b3ef92918290030190a3505050565b600082612bdf57506000610c17565b82820282848281612bec57fe5b04146121bb5760405162461bcd60e51b81526004018080602001828103825260218152602001806132e16021913960400191505060405180910390fd5b60006121bb83836040518060400160405280601a81526020017f536166654d6174683a206469766973696f6e206279207a65726f000000000000815250612e84565b6000612c78826002612c29565b90506000612c868383612e42565b905047612c9283612ee9565b6000612c9e4783612e42565b9050612caa838261308f565b604080518581526020810183905280820185905290517f17bbfb9a6069321b6ded73bd96327c9e6b7212a5cd51ff219cd61370acafb5619181900360600190a15050505050565b47612cfb82612ee9565b6000612d074783612e42565b600b546040519192506001600160a01b03169082156108fc029083906000818181858888f19350505050158015612d42573d6000803e3d6000fd5b50505050565b47612d5282612ee9565b6000612d5e4783612e42565b600c546040519192506001600160a01b03169082156108fc029083906000818181858888f19350505050158015612d42573d6000803e3d6000fd5b612da281612ee9565b60075460405147916000916001600160a01b039091169083908381818185875af1925050503d8060008114612df3576040519150601f19603f3d011682016040523d82523d6000602084013e612df8565b606091505b5050905080156128ab57604080518481526020810184905281517f80195cc573b02cc48460cbca6e6e4cc85ddb91959d946e1c3025ea3d87942dc3929181900390910190a1505050565b60006121bb83836040518060400160405280601e81526020017f536166654d6174683a207375627472616374696f6e206f766572666c6f7700008152506128b0565b60008183612ed35760405162461bcd60e51b81526020600482018181528351602484015283519092839260449091019190850190808383600083156129045781810151838201526020016128ec565b506000838581612edf57fe5b0495945050505050565b60408051600280825260608083018452926020830190803683370190505090503081600081518110612f1757fe5b6001600160a01b03928316602091820292909201810191909152600654604080516315ab88c960e31b81529051919093169263ad5c4648926004808301939192829003018186803b158015612f6b57600080fd5b505afa158015612f7f573d6000803e3d6000fd5b505050506040513d6020811015612f9557600080fd5b5051815182906001908110612fa657fe5b6001600160a01b039283166020918202929092010152600654612fcc91309116846121c6565b60065460405163791ac94760e01b8152600481018481526000602483018190523060648401819052426084850181905260a060448601908152875160a487015287516001600160a01b039097169663791ac947968a968a9594939092909160c40190602080880191028083838b5b8381101561305257818101518382015260200161303a565b505050509050019650505050505050600060405180830381600087803b15801561307b57600080fd5b505af11580156128a7573d6000803e3d6000fd5b6006546130a79030906001600160a01b0316846121c6565b6006546008546040805163f305d71960e01b81523060048201526024810186905260006044820181905260648201526001600160a01b0392831660848201524260a48201529051919092169163f305d71991849160c48082019260609290919082900301818588803b15801561311c57600080fd5b505af1158015613130573d6000803e3d6000fd5b50505050506040513d6060811015612d4257600080fdfe45524332303a207472616e7366657220746f20746865207a65726f20616464726573735058553a2043616e6e6f742075706461746520676173466f7250726f63657373696e6720746f2073616d652076616c75654f776e61626c653a206e6577206f776e657220697320746865207a65726f206164647265737345524332303a20617070726f766520746f20746865207a65726f20616464726573735058553a20546865206e6577206469766964656e6420747261636b6572206d757374206265206f776e6564206279207468652050585520746f6b656e20636f6e747261637445524332303a207472616e7366657220616d6f756e7420657863656564732062616c616e63655058553a20676173466f7250726f63657373696e67206d757374206265206265747765656e203230302c30303020616e64203530302c3030305058553a20546865206c69717569646974792077616c6c657420697320616c7265616479207468697320616464726573735058553a2054686520726f7574657220616c72656164792068617320746861742061646472657373536166654d6174683a206d756c7469706c69636174696f6e206f766572666c6f7745524332303a207472616e7366657220616d6f756e74206578636565647320616c6c6f77616e63654f776e61626c653a2063616c6c6572206973206e6f7420746865206f776e65725058553a20546865206469766964656e6420747261636b657220616c7265616479206861732074686174206164647265737345524332303a207472616e736665722066726f6d20746865207a65726f206164647265737353656c6c207472616e7366657220616d6f756e74206578636565647320746865206d617853656c6c5472616e73616374696f6e416d6f756e742e45524332303a20617070726f76652066726f6d20746865207a65726f20616464726573735058553a204163636f756e7420697320616c7265616479207468652076616c7565206f6620276578636c75646564275058553a204175746f6d61746564206d61726b6574206d616b6572207061697220697320616c72656164792073657420746f20746861742076616c75655058553a205468652050616e63616b655377617020706169722063616e6e6f742062652072656d6f7665642066726f6d206175746f6d617465644d61726b65744d616b6572506169727345524332303a2064656372656173656420616c6c6f77616e63652062656c6f77207a65726fa26469706673582212200cf1feda8a8302226ebf9a94b69ee5e18ad2b10126d512783497ef452bd9301364736f6c634300060c003360a06040523480156200001157600080fd5b5060408051808201825260148082527f5058555f4469766964656e645f547261636b6572000000000000000000000000602080840182815285518087019096529285528401528151919291839183916200006e9160039162000103565b5080516200008490600490602084019062000103565b505050505060006200009b620000ff60201b60201c565b600980546001600160a01b0319166001600160a01b038316908117909155604051919250906000907f8be0079c531659141344cd1fd0a4f28419497f9722a3daafe3b4186f6b6457e0908290a350610e106011556509184e72a0006080526200019f565b3390565b828054600181600116156101000203166002900490600052602060002090601f016020900481019282601f106200014657805160ff191683800117855562000176565b8280016001018555821562000176579182015b828111156200017657825182559160200191906001019062000159565b506200018492915062000188565b5090565b5b8082111562000184576000815560010162000189565b608051612209620001bf60003980611144528061121152506122096000f3fe6080604052600436106102085760003560e01c8063715018a611610118578063bc4c4b37116100a0578063e7841ec01161006f578063e7841ec0146107d0578063e98030c7146107e5578063f2fde38b1461080f578063fbcbc0f114610842578063ffb2c4791461087557610217565b8063bc4c4b371461070c578063be10b61414610747578063dd62ed3e1461075c578063e30443bc1461079757610217565b806395d89b41116100e757806395d89b411461061f578063a457c2d714610634578063a8b9d2401461066d578063a9059cbb146106a0578063aafd847a146106d957610217565b8063715018a61461059157806385a6b3ae146105a65780638da5cb5b146105bb57806391b89fba146105ec57610217565b80633009a6091161019b5780634e7b827f1161016a5780634e7b827f1461048c5780635183d6fd146104bf5780636a474002146105345780636f2789ec1461054957806370a082311461055e57610217565b80633009a609146103e0578063313ce567146103f557806331e79db014610420578063395093511461045357610217565b806318160ddd116101d757806318160ddd14610322578063226cfa3d1461033757806323b872dd1461036a57806327ce0147146103ad57610217565b806303c833021461021c57806306fdde0314610224578063095ea7b3146102ae57806309bbedde146102fb57610217565b36610217576102156108bd565b005b600080fd5b6102156108bd565b34801561023057600080fd5b5061023961094e565b6040805160208082528351818301528351919283929083019185019080838360005b8381101561027357818101518382015260200161025b565b50505050905090810190601f1680156102a05780820380516001836020036101000a031916815260200191505b509250505060405180910390f35b3480156102ba57600080fd5b506102e7600480360360408110156102d157600080fd5b506001600160a01b0381351690602001356109e4565b604080519115158252519081900360200190f35b34801561030757600080fd5b50610310610a02565b60408051918252519081900360200190f35b34801561032e57600080fd5b50610310610a08565b34801561034357600080fd5b506103106004803603602081101561035a57600080fd5b50356001600160a01b0316610a0e565b34801561037657600080fd5b506102e76004803603606081101561038d57600080fd5b506001600160a01b03813581169160208101359091169060400135610a20565b3480156103b957600080fd5b50610310600480360360208110156103d057600080fd5b50356001600160a01b0316610aa7565b3480156103ec57600080fd5b50610310610b06565b34801561040157600080fd5b5061040a610b0c565b6040805160ff9092168252519081900360200190f35b34801561042c57600080fd5b506102156004803603602081101561044357600080fd5b50356001600160a01b0316610b11565b34801561045f57600080fd5b506102e76004803603604081101561047657600080fd5b506001600160a01b038135169060200135610c6d565b34801561049857600080fd5b506102e7600480360360208110156104af57600080fd5b50356001600160a01b0316610cbb565b3480156104cb57600080fd5b506104e9600480360360208110156104e257600080fd5b5035610cd0565b604080516001600160a01b0390991689526020890197909752878701959095526060870193909352608086019190915260a085015260c084015260e083015251908190036101000190f35b34801561054057600080fd5b50610215610e2f565b34801561055557600080fd5b50610310610e66565b34801561056a57600080fd5b506103106004803603602081101561058157600080fd5b50356001600160a01b0316610e6c565b34801561059d57600080fd5b50610215610e87565b3480156105b257600080fd5b50610310610f29565b3480156105c757600080fd5b506105d0610f2f565b604080516001600160a01b039092168252519081900360200190f35b3480156105f857600080fd5b506103106004803603602081101561060f57600080fd5b50356001600160a01b0316610f3e565b34801561062b57600080fd5b50610239610f49565b34801561064057600080fd5b506102e76004803603604081101561065757600080fd5b506001600160a01b038135169060200135610faa565b34801561067957600080fd5b506103106004803603602081101561069057600080fd5b50356001600160a01b0316611012565b3480156106ac57600080fd5b506102e7600480360360408110156106c357600080fd5b506001600160a01b03813516906020013561103e565b3480156106e557600080fd5b50610310600480360360208110156106fc57600080fd5b50356001600160a01b0316611052565b34801561071857600080fd5b506102e76004803603604081101561072f57600080fd5b506001600160a01b038135169060200135151561106d565b34801561075357600080fd5b50610310611142565b34801561076857600080fd5b506103106004803603604081101561077f57600080fd5b506001600160a01b0381358116916020013516611166565b3480156107a357600080fd5b50610215600480360360408110156107ba57600080fd5b506001600160a01b038135169060200135611191565b3480156107dc57600080fd5b5061031061135b565b3480156107f157600080fd5b506102156004803603602081101561080857600080fd5b5035611361565b34801561081b57600080fd5b506102156004803603602081101561083257600080fd5b50356001600160a01b031661147d565b34801561084e57600080fd5b506104e96004803603602081101561086557600080fd5b50356001600160a01b0316611576565b34801561088157600080fd5b5061089f6004803603602081101561089857600080fd5b50356116e9565b60408051938452602084019290925282820152519081900360600190f35b60006108c7610a08565b116108d157600080fd5b341561094c576109026108e2610a08565b6108f034600160801b6117e7565b816108f757fe5b600554919004611847565b60055560408051348152905133917fa493a9229478c3fcd73f66d2cdeb7f94fd0f341da924d1054236d78454116511919081900360200190a26008546109489034611847565b6008555b565b60038054604080516020601f60026000196101006001881615020190951694909404938401819004810282018101909252828152606093909290918301828280156109da5780601f106109af576101008083540402835291602001916109da565b820191906000526020600020905b8154815290600101906020018083116109bd57829003601f168201915b5050505050905090565b60006109f86109f16118a1565b84846118a5565b5060015b92915050565b600a5490565b60025490565b60106020526000908152604090205481565b6000610a2d848484611991565b610a9d84610a396118a1565b610a9885604051806060016040528060288152602001612095602891396001600160a01b038a16600090815260016020526040812090610a776118a1565b6001600160a01b0316815260208101919091526040016000205491906119c8565b6118a5565b5060019392505050565b6001600160a01b038116600090815260066020526040812054600160801b90610af690610af190610aeb610ae6610add88610e6c565b600554906117e7565b611a5f565b90611a6f565b611aa2565b81610afd57fe5b0490505b919050565b600e5481565b600990565b610b196118a1565b6009546001600160a01b03908116911614610b69576040805162461bcd60e51b815260206004820181905260248201526000805160206120bd833981519152604482015290519081900360640190fd5b6001600160a01b0381166000908152600f602052604090205460ff1615610b8f57600080fd5b6001600160a01b0381166000908152600f60205260408120805460ff19166001179055610bbd908290611ab5565b6040805163131836e760e21b8152600a60048201526001600160a01b0383166024820152905173__IterableMapping_______________________91634c60db9c916044808301926000929190829003018186803b158015610c1e57600080fd5b505af4158015610c32573d6000803e3d6000fd5b50506040516001600160a01b03841692507fa878b31040b2e6d0a9a3d3361209db3908ba62014b0dca52adbaee451d128b259150600090a250565b60006109f8610c7a6118a1565b84610a988560016000610c8b6118a1565b6001600160a01b03908116825260208083019390935260409182016000908120918c168152925290205490611847565b600f6020526000908152604090205460ff1681565b600080600080600080600080600a73__IterableMapping_______________________63deb3d89690916040518263ffffffff1660e01b81526004018082815260200191505060206040518083038186803b158015610d2e57600080fd5b505af4158015610d42573d6000803e3d6000fd5b505050506040513d6020811015610d5857600080fd5b50518910610d7f575060009650600019955085945086935083925082915081905080610e24565b6000600a73__IterableMapping_______________________63d1aa9e7e90918c6040518363ffffffff1660e01b8152600401808381526020018281526020019250505060206040518083038186803b158015610ddb57600080fd5b505af4158015610def573d6000803e3d6000fd5b505050506040513d6020811015610e0557600080fd5b50519050610e1281611576565b98509850985098509850985098509850505b919395975091939597565b60405162461bcd60e51b81526004018080602001828103825260638152602001806120dd6063913960800191505060405180910390fd5b60115481565b6001600160a01b031660009081526020819052604090205490565b610e8f6118a1565b6009546001600160a01b03908116911614610edf576040805162461bcd60e51b815260206004820181905260248201526000805160206120bd833981519152604482015290519081900360640190fd5b6009546040516000916001600160a01b0316907f8be0079c531659141344cd1fd0a4f28419497f9722a3daafe3b4186f6b6457e0908390a3600980546001600160a01b0319169055565b60085481565b6009546001600160a01b031690565b60006109fc82611012565b60048054604080516020601f60026000196101006001881615020190951694909404938401819004810282018101909252828152606093909290918301828280156109da5780601f106109af576101008083540402835291602001916109da565b60006109f8610fb76118a1565b84610a98856040518060600160405280602581526020016121af6025913960016000610fe16118a1565b6001600160a01b03908116825260208083019390935260409182016000908120918d168152925290205491906119c8565b6001600160a01b0381166000908152600760205260408120546109fc9061103884610aa7565b90611b0e565b60006109f861104b6118a1565b8484611991565b6001600160a01b031660009081526007602052604090205490565b60006110776118a1565b6009546001600160a01b039081169116146110c7576040805162461bcd60e51b815260206004820181905260248201526000805160206120bd833981519152604482015290519081900360640190fd5b60006110d284611b50565b90508015611138576001600160a01b0384166000818152601060209081526040918290204290558151848152915186151593927fa2c38e2d2fb7e3e1912d937fd1ca11ed6d51864dee4cfa7a7bf02becd7acf09292908290030190a360019150506109fc565b5060009392505050565b7f000000000000000000000000000000000000000000000000000000000000000081565b6001600160a01b03918216600090815260016020908152604080832093909416825291909152205490565b6111996118a1565b6009546001600160a01b039081169116146111e9576040805162461bcd60e51b815260206004820181905260248201526000805160206120bd833981519152604482015290519081900360640190fd5b6001600160a01b0382166000908152600f602052604090205460ff161561120f57611357565b7f000000000000000000000000000000000000000000000000000000000000000081106112c5576112408282611ab5565b60408051632f0ad01760e21b8152600a60048201526001600160a01b038416602482015260448101839052905173__IterableMapping_______________________9163bc2b405c916064808301926000929190829003018186803b1580156112a857600080fd5b505af41580156112bc573d6000803e3d6000fd5b5050505061134a565b6112d0826000611ab5565b6040805163131836e760e21b8152600a60048201526001600160a01b0384166024820152905173__IterableMapping_______________________91634c60db9c916044808301926000929190829003018186803b15801561133157600080fd5b505af4158015611345573d6000803e3d6000fd5b505050505b61135582600161106d565b505b5050565b600e5490565b6113696118a1565b6009546001600160a01b039081169116146113b9576040805162461bcd60e51b815260206004820181905260248201526000805160206120bd833981519152604482015290519081900360640190fd5b610e1081101580156113ce5750620151808111155b6114095760405162461bcd60e51b81526004018080602001828103825260508152602001806120246050913960600191505060405180910390fd5b60115481141561144a5760405162461bcd60e51b815260040180806020018281038252603b815260200180611fe9603b913960400191505060405180910390fd5b60115460405182907f474ea64804364a1e29a4487ddb63c3342a2dd826ccd8acf48825e680a0e6f20f90600090a3601155565b6114856118a1565b6009546001600160a01b039081169116146114d5576040805162461bcd60e51b815260206004820181905260248201526000805160206120bd833981519152604482015290519081900360640190fd5b6001600160a01b03811661151a5760405162461bcd60e51b8152600401808060200182810382526026815260200180611fa16026913960400191505060405180910390fd5b6009546040516001600160a01b038084169216907f8be0079c531659141344cd1fd0a4f28419497f9722a3daafe3b4186f6b6457e090600090a3600980546001600160a01b0319166001600160a01b0392909216919091179055565b600080600080600080600080889750600a73__IterableMapping_______________________6317e142d190918a6040518363ffffffff1660e01b815260040180838152602001826001600160a01b031681526020019250505060206040518083038186803b1580156115e857600080fd5b505af41580156115fc573d6000803e3d6000fd5b505050506040513d602081101561161257600080fd5b5051965060001995506000871261167657600e5487111561164257600e5461163b908890611c91565b9550611676565b600e54600a5460009110611657576000611666565b600e54600a5461166691611b0e565b90506116728882611a6f565b9650505b61167f88611012565b945061168a88610aa7565b6001600160a01b0389166000908152601060205260409020549094509250826116b45760006116c2565b6011546116c2908490611847565b91504282116116d25760006116dc565b6116dc8242611b0e565b9050919395975091939597565b600a546000908190819080611709575050600e54600092508291506117e0565b600e546000805a90506000805b898410801561172457508582105b156117cf57600a54600190950194851061173d57600094505b6000600a600001868154811061174f57fe5b60009182526020808320909101546001600160a01b0316808352601090915260409091205490915061178090611cc3565b1561179c5761179081600161106d565b1561179c576001909101905b60019092019160005a9050808511156117c6576117c36117bc8683611b0e565b8790611847565b95505b93506117169050565b600e85905590975095509193505050505b9193909250565b6000826117f6575060006109fc565b8282028284828161180357fe5b04146118405760405162461bcd60e51b81526004018080602001828103825260218152602001806120746021913960400191505060405180910390fd5b9392505050565b600082820183811015611840576040805162461bcd60e51b815260206004820152601b60248201527f536166654d6174683a206164646974696f6e206f766572666c6f770000000000604482015290519081900360640190fd5b3390565b6001600160a01b0383166118ea5760405162461bcd60e51b81526004018080602001828103825260248152602001806121616024913960400191505060405180910390fd5b6001600160a01b03821661192f5760405162461bcd60e51b8152600401808060200182810382526022815260200180611fc76022913960400191505060405180910390fd5b6001600160a01b03808416600081815260016020908152604080832094871680845294825291829020859055815185815291517f8c5be1e5ebec7d5bd14f71427d1e84f3dd0314c0f7b2291e5b200ac8c7c3b9259281900390910190a3505050565b60405162461bcd60e51b815260040180806020018281038252602a815260200180612185602a913960400191505060405180910390fd5b60008184841115611a575760405162461bcd60e51b81526004018080602001828103825283818151815260200191508051906020019080838360005b83811015611a1c578181015183820152602001611a04565b50505050905090810190601f168015611a495780820380516001836020036101000a031916815260200191505b509250505060405180910390fd5b505050900390565b600081818112156109fc57600080fd5b6000828201818312801590611a845750838112155b80611a995750600083128015611a9957508381125b61184057600080fd5b600080821215611ab157600080fd5b5090565b6000611ac083610e6c565b905080821115611ae8576000611ad68383611b0e565b9050611ae28482611cea565b50611355565b80821015611355576000611afc8284611b0e565b9050611b088482611d4e565b50505050565b600061184083836040518060400160405280601e81526020017f536166654d6174683a207375627472616374696f6e206f766572666c6f7700008152506119c8565b600080611b5c83611012565b90508015611c88576001600160a01b038316600090815260076020526040902054611b879082611847565b6001600160a01b038416600081815260076020908152604091829020939093558051848152905191927fee503bee2bb6a87e57bc57db795f98137327401a0e7b7ce42e37926cc1a9ca4d92918290030190a26040516000906001600160a01b03851690610bb890849084818181858888f193505050503d8060008114611c29576040519150601f19603f3d011682016040523d82523d6000602084013e611c2e565b606091505b5050905080611c80576001600160a01b038416600090815260076020526040902054611c5a9083611b0e565b6001600160a01b0385166000908152600760205260408120919091559250610b01915050565b509050610b01565b50600092915050565b6000818303818312801590611ca65750838113155b80611a995750600083128015611a99575083811361184057600080fd5b600042821115611cd557506000610b01565b601154611ce24284611b0e565b101592915050565b611cf48282611d92565b611d2e611d0f610ae6836005546117e790919063ffffffff16565b6001600160a01b03841660009081526006602052604090205490611c91565b6001600160a01b0390921660009081526006602052604090209190915550565b611d588282611e82565b611d2e611d73610ae6836005546117e790919063ffffffff16565b6001600160a01b03841660009081526006602052604090205490611a6f565b6001600160a01b038216611ded576040805162461bcd60e51b815260206004820152601f60248201527f45524332303a206d696e7420746f20746865207a65726f206164647265737300604482015290519081900360640190fd5b611df960008383611355565b600254611e069082611847565b6002556001600160a01b038216600090815260208190526040902054611e2c9082611847565b6001600160a01b0383166000818152602081815260408083209490945583518581529351929391927fddf252ad1be2c89b69c2b068fc378daa952ba7f163c4a11628f55a4df523b3ef9281900390910190a35050565b6001600160a01b038216611ec75760405162461bcd60e51b81526004018080602001828103825260218152602001806121406021913960400191505060405180910390fd5b611ed382600083611355565b611f1081604051806060016040528060228152602001611f7f602291396001600160a01b03851660009081526020819052604090205491906119c8565b6001600160a01b038316600090815260208190526040902055600254611f369082611b0e565b6002556040805182815290516000916001600160a01b038516917fddf252ad1be2c89b69c2b068fc378daa952ba7f163c4a11628f55a4df523b3ef9181900360200190a3505056fe45524332303a206275726e20616d6f756e7420657863656564732062616c616e63654f776e61626c653a206e6577206f776e657220697320746865207a65726f206164647265737345524332303a20617070726f766520746f20746865207a65726f20616464726573735058555f4469766964656e645f547261636b65723a2043616e6e6f742075706461746520636c61696d5761697420746f2073616d652076616c75655058555f4469766964656e645f547261636b65723a20636c61696d57616974206d757374206265207570646174656420746f206265747765656e2031206d696e75746520616e6420323420686f757273536166654d6174683a206d756c7469706c69636174696f6e206f766572666c6f7745524332303a207472616e7366657220616d6f756e74206578636565647320616c6c6f77616e63654f776e61626c653a2063616c6c6572206973206e6f7420746865206f776e65725058555f4469766964656e645f547261636b65723a2077697468647261774469766964656e642064697361626c65642e20557365207468652027636c61696d272066756e6374696f6e206f6e20746865206d61696e2050585520636f6e74726163742e45524332303a206275726e2066726f6d20746865207a65726f206164647265737345524332303a20617070726f76652066726f6d20746865207a65726f20616464726573735058555f4469766964656e645f547261636b65723a204e6f207472616e736665727320616c6c6f77656445524332303a2064656372656173656420616c6c6f77616e63652062656c6f77207a65726fa2646970667358221220467f12002658f1035377057c1d8c895796e04de0ff7f46a055c41df49216df4064736f6c634300060c00335058553a204163636f756e7420697320616c7265616479207468652076616c7565206f6620276578636c75646564275058553a204175746f6d61746564206d61726b6574206d616b6572207061697220697320616c72656164792073657420746f20746861742076616c7565",
  "immutableReferences": {
    "2159": [
      {
        "length": 32,
        "start": 3511
      },
      {
        "length": 32,
        "start": 6194
      }
    ],
    "2183": [
      {
        "length": 32,
        "start": 7530
      }
    ],
    "2185": [
      {
        "length": 32,
        "start": 6070
      },
      {
        "length": 32,
        "start": 9426
      }
    ],
    "2187": [
      {
        "length": 32,
        "start": 4204
      },
      {
        "length": 32,
        "start": 7581
      },
      {
        "length": 32,
        "start": 9523
      }
    ],
    "2189": [
      {
        "length": 32,
        "start": 3547
      },
      {
        "length": 32,
        "start": 4660
      },
      {
        "length": 32,
        "start": 9614
      }
    ],
    "2191": [
      {
        "length": 32,
        "start": 3103
      },
      {
        "length": 32,
        "start": 9389
      },
      {
        "length": 32,
        "start": 9486
      },
      {
        "length": 32,
        "start": 9577
      },
      {
        "length": 32,
        "start": 9807
      }
    ]
  },
  "source": "// SPDX-License-Identifier: MIT\r\n\r\npragma solidity ^0.6.2;\r\n\r\nimport \"./DividendPayingToken.sol\";\r\nimport \"./SafeMath.sol\";\r\nimport \"./IterableMapping.sol\";\r\nimport \"./Ownable.sol\";\r\nimport \"./IUniswapV2Pair.sol\";\r\nimport \"./IUniswapV2Factory.sol\";\r\nimport \"./IUniswapV2Router.sol\";\r\n\r\ncontract PhoenixUnity is ERC20, Ownable {\r\n    using SafeMath for uint256;\r\n\r\n    IUniswapV2Router02 public uniswapV2Router;\r\n    address public immutable uniswapV2Pair;\r\n\r\n    bool private swapping;\r\n\r\n    PXUDividendTracker public dividendTracker;\r\n\r\n    address public liquidityWallet;\r\n\r\n    uint256 public maxSellTransactionAmount = 1000000000 * (10**9);\r\n    uint256 public swapTokensAtAmount = 200000 * (10**9);\r\n\r\n    uint256 public immutable BNBRewardsFee;\r\n    uint256 public immutable liquidityFee;\r\n    uint256 public immutable phxInnovationsFee;\r\n    uint256 public immutable stakepoolFee;\r\n    uint256 public immutable totalFees;\r\n\r\n    // PhxInnovations wallet\r\n    address payable _phxInnovationsWallet = 0xdB00474F085b9fDd15Cd6C5f5B6E9752Cf983E85;\r\n\r\n    // StakePool wallet\r\n    address payable _stakepoolWallet = 0x54F0BF53BE58f734Ecd92D74C04aA55994d1ACe5;\r\n\r\n    // use by default 500,000 gas to process auto-claiming dividends\r\n    uint256 public gasForProcessing = 500000;\r\n\r\n    // exlcude from fees and max transaction amount\r\n    mapping (address => bool) private _isExcludedFromFees;\r\n\r\n    // store addresses that a automatic market maker pairs. Any transfer *to* these addresses\r\n    // could be subject to a maximum transfer amount\r\n    mapping (address => bool) public automatedMarketMakerPairs;\r\n\r\n    event UpdateDividendTracker(address indexed newAddress, address indexed oldAddress);\r\n\r\n    event UpdateUniswapV2Router(address indexed newAddress, address indexed oldAddress);\r\n\r\n    event ExcludeFromFees(address indexed account, bool isExcluded);\r\n    event ExcludeMultipleAccountsFromFees(address[] accounts, bool isExcluded);\r\n\r\n    event SetAutomatedMarketMakerPair(address indexed pair, bool indexed value);\r\n\r\n    event LiquidityWalletUpdated(address indexed newLiquidityWallet, address indexed oldLiquidityWallet);\r\n\r\n    event GasForProcessingUpdated(uint256 indexed newValue, uint256 indexed oldValue);\r\n\r\n    event SwapAndLiquify(\r\n        uint256 tokensSwapped,\r\n        uint256 ethReceived,\r\n        uint256 tokensIntoLiqudity\r\n    );\r\n\r\n    event SendDividends(\r\n    \tuint256 tokensSwapped,\r\n    \tuint256 amount\r\n    );\r\n\r\n    event ProcessedDividendTracker(\r\n    \tuint256 iterations,\r\n    \tuint256 claims,\r\n        uint256 lastProcessedIndex,\r\n    \tbool indexed automatic,\r\n    \tuint256 gas,\r\n    \taddress indexed processor\r\n    );\r\n\r\n    constructor() public ERC20(\"Phoenix Unity\", \"PXU\") {\r\n        uint256 _BNBRewardsFee = 3;\r\n        uint256 _liquidityFee = 4;\r\n        uint256 _phxInnovationsFee = 3;\r\n        uint256 _stakepoolFee = 5;\r\n\r\n        BNBRewardsFee = _BNBRewardsFee;\r\n        liquidityFee = _liquidityFee;\r\n        phxInnovationsFee = _phxInnovationsFee;\r\n        stakepoolFee = _stakepoolFee;\r\n        totalFees = _BNBRewardsFee.add(_liquidityFee).add(_phxInnovationsFee).add(_stakepoolFee);\r\n\r\n    \tdividendTracker = new PXUDividendTracker();\r\n\r\n    \tliquidityWallet = owner();\r\n\r\n\r\n    \tIUniswapV2Router02 _uniswapV2Router = IUniswapV2Router02(0x10ED43C718714eb63d5aA57B78B54704E256024E);\r\n         // Create a uniswap pair for this new token\r\n        address _uniswapV2Pair = IUniswapV2Factory(_uniswapV2Router.factory())\r\n            .createPair(address(this), _uniswapV2Router.WETH());\r\n\r\n        uniswapV2Router = _uniswapV2Router;\r\n        uniswapV2Pair = _uniswapV2Pair;\r\n\r\n        _setAutomatedMarketMakerPair(_uniswapV2Pair, true);\r\n\r\n        // exclude from receiving dividends\r\n        dividendTracker.excludeFromDividends(address(dividendTracker));\r\n        dividendTracker.excludeFromDividends(address(this));\r\n        dividendTracker.excludeFromDividends(owner());\r\n        dividendTracker.excludeFromDividends(address(_uniswapV2Router));\r\n\r\n        // exclude from paying fees or having max transaction amount\r\n        excludeFromFees(liquidityWallet, true);\r\n        excludeFromFees(address(this), true);\r\n\r\n        /*\r\n            _mint is an internal function in ERC20.sol that is only called here,\r\n            and CANNOT be called ever again\r\n        */\r\n        _mint(owner(), 1000000000 * (10**9));\r\n    }\r\n\r\n    receive() external payable {\r\n\r\n  \t}\r\n\r\n    function updateDividendTracker(address newAddress) public onlyOwner {\r\n        require(newAddress != address(dividendTracker), \"PXU: The dividend tracker already has that address\");\r\n\r\n        PXUDividendTracker newDividendTracker = PXUDividendTracker(payable(newAddress));\r\n\r\n        require(newDividendTracker.owner() == address(this), \"PXU: The new dividend tracker must be owned by the PXU token contract\");\r\n\r\n        newDividendTracker.excludeFromDividends(address(newDividendTracker));\r\n        newDividendTracker.excludeFromDividends(address(this));\r\n        newDividendTracker.excludeFromDividends(owner());\r\n        newDividendTracker.excludeFromDividends(address(uniswapV2Router));\r\n\r\n        emit UpdateDividendTracker(newAddress, address(dividendTracker));\r\n\r\n        dividendTracker = newDividendTracker;\r\n    }\r\n\r\n    function updateUniswapV2Router(address newAddress) public onlyOwner {\r\n        require(newAddress != address(uniswapV2Router), \"PXU: The router already has that address\");\r\n        emit UpdateUniswapV2Router(newAddress, address(uniswapV2Router));\r\n        uniswapV2Router = IUniswapV2Router02(newAddress);\r\n    }\r\n\r\n    function setPhxInnovationsWallet (address payable wallet) public onlyOwner {\r\n        _phxInnovationsWallet = wallet;\r\n    }\r\n\r\n    function setStakePoolWallet (address payable wallet) public onlyOwner {\r\n        _stakepoolWallet = wallet;\r\n    }\r\n\r\n    function excludeFromFees(address account, bool excluded) public onlyOwner {\r\n        require(_isExcludedFromFees[account] != excluded, \"PXU: Account is already the value of 'excluded'\");\r\n        _isExcludedFromFees[account] = excluded;\r\n\r\n        emit ExcludeFromFees(account, excluded);\r\n    }\r\n\r\n    function excludeMultipleAccountsFromFees(address[] calldata accounts, bool excluded) public onlyOwner {\r\n        for(uint256 i = 0; i < accounts.length; i++) {\r\n            _isExcludedFromFees[accounts[i]] = excluded;\r\n        }\r\n\r\n        emit ExcludeMultipleAccountsFromFees(accounts, excluded);\r\n    }\r\n\r\n    function setAutomatedMarketMakerPair(address pair, bool value) public onlyOwner {\r\n        require(pair != uniswapV2Pair, \"PXU: The PancakeSwap pair cannot be removed from automatedMarketMakerPairs\");\r\n\r\n        _setAutomatedMarketMakerPair(pair, value);\r\n    }\r\n\r\n    function _setAutomatedMarketMakerPair(address pair, bool value) private {\r\n        require(automatedMarketMakerPairs[pair] != value, \"PXU: Automated market maker pair is already set to that value\");\r\n        automatedMarketMakerPairs[pair] = value;\r\n\r\n        if(value) {\r\n            dividendTracker.excludeFromDividends(pair);\r\n        }\r\n\r\n        emit SetAutomatedMarketMakerPair(pair, value);\r\n    }\r\n\r\n\r\n    function updateLiquidityWallet(address newLiquidityWallet) public onlyOwner {\r\n        require(newLiquidityWallet != liquidityWallet, \"PXU: The liquidity wallet is already this address\");\r\n        excludeFromFees(newLiquidityWallet, true);\r\n        emit LiquidityWalletUpdated(newLiquidityWallet, liquidityWallet);\r\n        liquidityWallet = newLiquidityWallet;\r\n    }\r\n\r\n    function updateGasForProcessing(uint256 newValue) public onlyOwner {\r\n        require(newValue >= 200000 && newValue <= 500000, \"PXU: gasForProcessing must be between 200,000 and 500,000\");\r\n        require(newValue != gasForProcessing, \"PXU: Cannot update gasForProcessing to same value\");\r\n        emit GasForProcessingUpdated(newValue, gasForProcessing);\r\n        gasForProcessing = newValue;\r\n    }\r\n\r\n    function updateClaimWait(uint256 claimWait) external onlyOwner {\r\n        dividendTracker.updateClaimWait(claimWait);\r\n    }\r\n\r\n    function getClaimWait() external view returns(uint256) {\r\n        return dividendTracker.claimWait();\r\n    }\r\n\r\n    function getTotalDividendsDistributed() external view returns (uint256) {\r\n        return dividendTracker.totalDividendsDistributed();\r\n    }\r\n\r\n    function isExcludedFromFees(address account) public view returns(bool) {\r\n        return _isExcludedFromFees[account];\r\n    }\r\n\r\n    function withdrawableDividendOf(address account) public view returns(uint256) {\r\n    \treturn dividendTracker.withdrawableDividendOf(account);\r\n  \t}\r\n\r\n\tfunction dividendTokenBalanceOf(address account) public view returns (uint256) {\r\n\t\treturn dividendTracker.balanceOf(account);\r\n\t}\r\n\r\n    function getAccountDividendsInfo(address account)\r\n        external view returns (\r\n            address,\r\n            int256,\r\n            int256,\r\n            uint256,\r\n            uint256,\r\n            uint256,\r\n            uint256,\r\n            uint256) {\r\n        return dividendTracker.getAccount(account);\r\n    }\r\n\r\n\tfunction getAccountDividendsInfoAtIndex(uint256 index)\r\n        external view returns (\r\n            address,\r\n            int256,\r\n            int256,\r\n            uint256,\r\n            uint256,\r\n            uint256,\r\n            uint256,\r\n            uint256) {\r\n    \treturn dividendTracker.getAccountAtIndex(index);\r\n    }\r\n\r\n\tfunction processDividendTracker(uint256 gas) external {\r\n\t\t(uint256 iterations, uint256 claims, uint256 lastProcessedIndex) = dividendTracker.process(gas);\r\n\t\temit ProcessedDividendTracker(iterations, claims, lastProcessedIndex, false, gas, tx.origin);\r\n    }\r\n\r\n    function claim() external {\r\n\t\tdividendTracker.processAccount(msg.sender, false);\r\n    }\r\n\r\n    function getPhxInnovationsFeePercent() public view returns (uint256){\r\n        return phxInnovationsFee;\r\n    }\r\n\r\n    function getStakePoolFeePercent() public view returns (uint256){\r\n        return stakepoolFee;\r\n    }\r\n\r\n    function getLastProcessedIndex() external view returns(uint256) {\r\n    \treturn dividendTracker.getLastProcessedIndex();\r\n    }\r\n\r\n    function getNumberOfDividendTokenHolders() external view returns(uint256) {\r\n        return dividendTracker.getNumberOfTokenHolders();\r\n    }\r\n\r\n    function _transfer(\r\n        address from,\r\n        address to,\r\n        uint256 amount\r\n    ) internal override {\r\n        require(from != address(0), \"ERC20: transfer from the zero address\");\r\n        require(to != address(0), \"ERC20: transfer to the zero address\");\r\n\r\n        if(amount == 0) {\r\n            super._transfer(from, to, 0);\r\n            return;\r\n        }\r\n\r\n        if(\r\n        \t!swapping &&\r\n            automatedMarketMakerPairs[to] && // sells only by detecting transfer to automated market maker pair\r\n        \tfrom != address(uniswapV2Router) && //router -> pair is removing liquidity which shouldn't have max\r\n            !_isExcludedFromFees[to] //no max for those excluded from fees\r\n        ) {\r\n            require(amount <= maxSellTransactionAmount, \"Sell transfer amount exceeds the maxSellTransactionAmount.\");\r\n        }\r\n\r\n\t\tuint256 contractTokenBalance = balanceOf(address(this));\r\n\r\n        bool canSwap = contractTokenBalance >= swapTokensAtAmount;\r\n\r\n        if(\r\n            canSwap &&\r\n            !swapping &&\r\n            !automatedMarketMakerPairs[from] &&\r\n            from != liquidityWallet &&\r\n            to != liquidityWallet\r\n        ) {\r\n            swapping = true;\r\n\r\n            uint256 swapTokens = contractTokenBalance.mul(liquidityFee).div(totalFees);\r\n            swapAndLiquify(swapTokens);\r\n\r\n            uint256 phxInnovationsTokens = contractTokenBalance.mul(phxInnovationsFee).div(totalFees);\r\n            sendBNBToPhxInnovations(phxInnovationsTokens);\r\n\r\n            uint256 stakepoolTokens = contractTokenBalance.mul(stakepoolFee).div(totalFees);\r\n            sendBNBToStakepool(stakepoolTokens);\r\n\r\n            uint256 sellTokens = balanceOf(address(this));\r\n            swapAndSendDividends(sellTokens);\r\n\r\n            swapping = false;\r\n        }\r\n\r\n\r\n        bool takeFee = !swapping;\r\n\r\n        // if any account belongs to _isExcludedFromFee account then remove the fee\r\n        if(_isExcludedFromFees[from] || _isExcludedFromFees[to]) {\r\n            takeFee = false;\r\n        }\r\n\r\n        if(takeFee) {\r\n        \tuint256 fees = amount.mul(totalFees).div(100);\r\n\r\n            // if sell, multiply by 1.2\r\n            if(automatedMarketMakerPairs[to]) {\r\n                fees += amount.mul(1).div(100);\r\n            }\r\n\r\n        \tamount = amount.sub(fees);\r\n\r\n            super._transfer(from, address(this), fees);\r\n        }\r\n\r\n        super._transfer(from, to, amount);\r\n\r\n        try dividendTracker.setBalance(payable(from), balanceOf(from)) {} catch {}\r\n        try dividendTracker.setBalance(payable(to), balanceOf(to)) {} catch {}\r\n\r\n        if(!swapping) {\r\n\t    \tuint256 gas = gasForProcessing;\r\n\r\n\t    \ttry dividendTracker.process(gas) returns (uint256 iterations, uint256 claims, uint256 lastProcessedIndex) {\r\n\t    \t\temit ProcessedDividendTracker(iterations, claims, lastProcessedIndex, true, gas, tx.origin);\r\n\t    \t}\r\n\t    \tcatch {\r\n\r\n\t    \t}\r\n        }\r\n    }\r\n\r\n    function swapAndLiquify(uint256 tokens) private {\r\n        // split the contract balance into halves\r\n        uint256 half = tokens.div(2);\r\n        uint256 otherHalf = tokens.sub(half);\r\n\r\n        // capture the contract's current ETH balance.\r\n        // this is so that we can capture exactly the amount of ETH that the\r\n        // swap creates, and not make the liquidity event include any ETH that\r\n        // has been manually sent to the contract\r\n        uint256 initialBalance = address(this).balance;\r\n\r\n        // swap tokens for ETH\r\n        swapTokensForEth(half); // <- this breaks the ETH -> HATE swap when swap+liquify is triggered\r\n\r\n        // how much ETH did we just swap into?\r\n        uint256 newBalance = address(this).balance.sub(initialBalance);\r\n\r\n        // add liquidity to uniswap\r\n        addLiquidity(otherHalf, newBalance);\r\n\r\n        emit SwapAndLiquify(half, newBalance, otherHalf);\r\n    }\r\n\r\n    function swapTokensForEth(uint256 tokenAmount) private {\r\n\r\n\r\n        // generate the uniswap pair path of token -> weth\r\n        address[] memory path = new address[](2);\r\n        path[0] = address(this);\r\n        path[1] = uniswapV2Router.WETH();\r\n\r\n        _approve(address(this), address(uniswapV2Router), tokenAmount);\r\n\r\n        // make the swap\r\n        uniswapV2Router.swapExactTokensForETHSupportingFeeOnTransferTokens(\r\n            tokenAmount,\r\n            0, // accept any amount of ETH\r\n            path,\r\n            address(this),\r\n            block.timestamp\r\n        );\r\n\r\n    }\r\n\r\n    function addLiquidity(uint256 tokenAmount, uint256 ethAmount) private {\r\n\r\n        // approve token transfer to cover all possible scenarios\r\n        _approve(address(this), address(uniswapV2Router), tokenAmount);\r\n\r\n        // add the liquidity\r\n        uniswapV2Router.addLiquidityETH{value: ethAmount}(\r\n            address(this),\r\n            tokenAmount,\r\n            0, // slippage is unavoidable\r\n            0, // slippage is unavoidable\r\n            liquidityWallet,\r\n            block.timestamp\r\n        );\r\n\r\n    }\r\n\r\n    function sendBNBToPhxInnovations(uint256 tokens) private {\r\n        uint256 initialBalance = address(this).balance;\r\n         swapTokensForEth(tokens);\r\n        uint256 bnbToSend = address(this).balance.sub(initialBalance);\r\n         _phxInnovationsWallet.transfer(bnbToSend);\r\n    }\r\n\r\n    function sendBNBToStakepool(uint256 tokens) private {\r\n        uint256 initialBalance = address(this).balance;\r\n         swapTokensForEth(tokens);\r\n        uint256 bnbToSend = address(this).balance.sub(initialBalance);\r\n         _stakepoolWallet.transfer(bnbToSend);\r\n    }\r\n\r\n    function swapAndSendDividends(uint256 tokens) private {\r\n        swapTokensForEth(tokens);\r\n        uint256 dividends = address(this).balance;\r\n        (bool success,) = address(dividendTracker).call{value: dividends}(\"\");\r\n\r\n        if(success) {\r\n   \t \t\temit SendDividends(tokens, dividends);\r\n        }\r\n    }\r\n}\r\n\r\ncontract PXUDividendTracker is DividendPayingToken, Ownable {\r\n    using SafeMath for uint256;\r\n    using SafeMathInt for int256;\r\n    using IterableMapping for IterableMapping.Map;\r\n\r\n    IterableMapping.Map private tokenHoldersMap;\r\n    uint256 public lastProcessedIndex;\r\n\r\n    mapping (address => bool) public excludedFromDividends;\r\n\r\n    mapping (address => uint256) public lastClaimTimes;\r\n\r\n    uint256 public claimWait;\r\n    uint256 public immutable minimumTokenBalanceForDividends;\r\n\r\n    event ExcludeFromDividends(address indexed account);\r\n    event ClaimWaitUpdated(uint256 indexed newValue, uint256 indexed oldValue);\r\n\r\n    event Claim(address indexed account, uint256 amount, bool indexed automatic);\r\n\r\n    constructor() public DividendPayingToken(\"PXU_Dividend_Tracker\", \"PXU_Dividend_Tracker\") {\r\n    \tclaimWait = 3600;\r\n        minimumTokenBalanceForDividends = 10000 * (10**9); //must hold 10000+ tokens\r\n    }\r\n\r\n    function _transfer(address, address, uint256) internal override {\r\n        require(false, \"PXU_Dividend_Tracker: No transfers allowed\");\r\n    }\r\n\r\n    function withdrawDividend() public override {\r\n        require(false, \"PXU_Dividend_Tracker: withdrawDividend disabled. Use the 'claim' function on the main PXU contract.\");\r\n    }\r\n\r\n    function excludeFromDividends(address account) external onlyOwner {\r\n    \trequire(!excludedFromDividends[account]);\r\n    \texcludedFromDividends[account] = true;\r\n\r\n    \t_setBalance(account, 0);\r\n    \ttokenHoldersMap.remove(account);\r\n\r\n    \temit ExcludeFromDividends(account);\r\n    }\r\n\r\n    function updateClaimWait(uint256 newClaimWait) external onlyOwner {\r\n        require(newClaimWait >= 3600 && newClaimWait <= 86400, \"PXU_Dividend_Tracker: claimWait must be updated to between 1 minute and 24 hours\");\r\n        require(newClaimWait != claimWait, \"PXU_Dividend_Tracker: Cannot update claimWait to same value\");\r\n        emit ClaimWaitUpdated(newClaimWait, claimWait);\r\n        claimWait = newClaimWait;\r\n    }\r\n\r\n    function getLastProcessedIndex() external view returns(uint256) {\r\n    \treturn lastProcessedIndex;\r\n    }\r\n\r\n    function getNumberOfTokenHolders() external view returns(uint256) {\r\n        return tokenHoldersMap.keys.length;\r\n    }\r\n\r\n\r\n\r\n    function getAccount(address _account)\r\n        public view returns (\r\n            address account,\r\n            int256 index,\r\n            int256 iterationsUntilProcessed,\r\n            uint256 withdrawableDividends,\r\n            uint256 totalDividends,\r\n            uint256 lastClaimTime,\r\n            uint256 nextClaimTime,\r\n            uint256 secondsUntilAutoClaimAvailable) {\r\n        account = _account;\r\n\r\n        index = tokenHoldersMap.getIndexOfKey(account);\r\n\r\n        iterationsUntilProcessed = -1;\r\n\r\n        if(index >= 0) {\r\n            if(uint256(index) > lastProcessedIndex) {\r\n                iterationsUntilProcessed = index.sub(int256(lastProcessedIndex));\r\n            }\r\n            else {\r\n                uint256 processesUntilEndOfArray = tokenHoldersMap.keys.length > lastProcessedIndex ?\r\n                                                        tokenHoldersMap.keys.length.sub(lastProcessedIndex) :\r\n                                                        0;\r\n\r\n\r\n                iterationsUntilProcessed = index.add(int256(processesUntilEndOfArray));\r\n            }\r\n        }\r\n\r\n\r\n        withdrawableDividends = withdrawableDividendOf(account);\r\n        totalDividends = accumulativeDividendOf(account);\r\n\r\n        lastClaimTime = lastClaimTimes[account];\r\n\r\n        nextClaimTime = lastClaimTime > 0 ?\r\n                                    lastClaimTime.add(claimWait) :\r\n                                    0;\r\n\r\n        secondsUntilAutoClaimAvailable = nextClaimTime > block.timestamp ?\r\n                                                    nextClaimTime.sub(block.timestamp) :\r\n                                                    0;\r\n    }\r\n\r\n    function getAccountAtIndex(uint256 index)\r\n        public view returns (\r\n            address,\r\n            int256,\r\n            int256,\r\n            uint256,\r\n            uint256,\r\n            uint256,\r\n            uint256,\r\n            uint256) {\r\n    \tif(index >= tokenHoldersMap.size()) {\r\n            return (0x0000000000000000000000000000000000000000, -1, -1, 0, 0, 0, 0, 0);\r\n        }\r\n\r\n        address account = tokenHoldersMap.getKeyAtIndex(index);\r\n\r\n        return getAccount(account);\r\n    }\r\n\r\n    function canAutoClaim(uint256 lastClaimTime) private view returns (bool) {\r\n    \tif(lastClaimTime > block.timestamp)  {\r\n    \t\treturn false;\r\n    \t}\r\n\r\n    \treturn block.timestamp.sub(lastClaimTime) >= claimWait;\r\n    }\r\n\r\n    function setBalance(address payable account, uint256 newBalance) external onlyOwner {\r\n    \tif(excludedFromDividends[account]) {\r\n    \t\treturn;\r\n    \t}\r\n\r\n    \tif(newBalance >= minimumTokenBalanceForDividends) {\r\n            _setBalance(account, newBalance);\r\n    \t\ttokenHoldersMap.set(account, newBalance);\r\n    \t}\r\n    \telse {\r\n            _setBalance(account, 0);\r\n    \t\ttokenHoldersMap.remove(account);\r\n    \t}\r\n\r\n    \tprocessAccount(account, true);\r\n    }\r\n\r\n    function process(uint256 gas) public returns (uint256, uint256, uint256) {\r\n    \tuint256 numberOfTokenHolders = tokenHoldersMap.keys.length;\r\n\r\n    \tif(numberOfTokenHolders == 0) {\r\n    \t\treturn (0, 0, lastProcessedIndex);\r\n    \t}\r\n\r\n    \tuint256 _lastProcessedIndex = lastProcessedIndex;\r\n\r\n    \tuint256 gasUsed = 0;\r\n\r\n    \tuint256 gasLeft = gasleft();\r\n\r\n    \tuint256 iterations = 0;\r\n    \tuint256 claims = 0;\r\n\r\n    \twhile(gasUsed < gas && iterations < numberOfTokenHolders) {\r\n    \t\t_lastProcessedIndex++;\r\n\r\n    \t\tif(_lastProcessedIndex >= tokenHoldersMap.keys.length) {\r\n    \t\t\t_lastProcessedIndex = 0;\r\n    \t\t}\r\n\r\n    \t\taddress account = tokenHoldersMap.keys[_lastProcessedIndex];\r\n\r\n    \t\tif(canAutoClaim(lastClaimTimes[account])) {\r\n    \t\t\tif(processAccount(payable(account), true)) {\r\n    \t\t\t\tclaims++;\r\n    \t\t\t}\r\n    \t\t}\r\n\r\n    \t\titerations++;\r\n\r\n    \t\tuint256 newGasLeft = gasleft();\r\n\r\n    \t\tif(gasLeft > newGasLeft) {\r\n    \t\t\tgasUsed = gasUsed.add(gasLeft.sub(newGasLeft));\r\n    \t\t}\r\n\r\n    \t\tgasLeft = newGasLeft;\r\n    \t}\r\n\r\n    \tlastProcessedIndex = _lastProcessedIndex;\r\n\r\n    \treturn (iterations, claims, lastProcessedIndex);\r\n    }\r\n\r\n    function processAccount(address payable account, bool automatic) public onlyOwner returns (bool) {\r\n        uint256 amount = _withdrawDividendOfUser(account);\r\n\r\n    \tif(amount > 0) {\r\n    \t\tlastClaimTimes[account] = block.timestamp;\r\n            emit Claim(account, amount, automatic);\r\n    \t\treturn true;\r\n    \t}\r\n\r\n    \treturn false;\r\n    }\r\n}\r\n",
  "sourcePath": "C:\\Users\\Mahesh\\NodeReact\\Blockchain\\CLIENT-PROJECTS\\PHOENIX_DASHBOARD\\contracts\\PXU.sol",
  "compiler": {
    "name": "solc",
    "version": "0.6.12+commit.27d51765.Emscripten.clang"
  },
  "schemaVersion": "3.4.3",
  "updatedAt": "2021-10-16T06:11:08.600Z",
  "devdoc": {
    "kind": "dev",
    "methods": {
      "allowance(address,address)": {
        "details": "See {IERC20-allowance}."
      },
      "approve(address,uint256)": {
        "details": "See {IERC20-approve}. Requirements: - `spender` cannot be the zero address."
      },
      "balanceOf(address)": {
        "details": "See {IERC20-balanceOf}."
      },
      "decimals()": {
        "details": "Returns the number of decimals used to get its user representation. For example, if `decimals` equals `2`, a balance of `505` tokens should be displayed to a user as `5,05` (`505 / 10 ** 2`). Tokens usually opt for a value of 18, imitating the relationship between Ether and Wei. This is the value {ERC20} uses, unless this function is overridden; NOTE: This information is only used for _display_ purposes: it in no way affects any of the arithmetic of the contract, including {IERC20-balanceOf} and {IERC20-transfer}."
      },
      "decreaseAllowance(address,uint256)": {
        "details": "Atomically decreases the allowance granted to `spender` by the caller. This is an alternative to {approve} that can be used as a mitigation for problems described in {IERC20-approve}. Emits an {Approval} event indicating the updated allowance. Requirements: - `spender` cannot be the zero address. - `spender` must have allowance for the caller of at least `subtractedValue`."
      },
      "increaseAllowance(address,uint256)": {
        "details": "Atomically increases the allowance granted to `spender` by the caller. This is an alternative to {approve} that can be used as a mitigation for problems described in {IERC20-approve}. Emits an {Approval} event indicating the updated allowance. Requirements: - `spender` cannot be the zero address."
      },
      "name()": {
        "details": "Returns the name of the token."
      },
      "owner()": {
        "details": "Returns the address of the current owner."
      },
      "renounceOwnership()": {
        "details": "Leaves the contract without owner. It will not be possible to call `onlyOwner` functions anymore. Can only be called by the current owner. NOTE: Renouncing ownership will leave the contract without an owner, thereby removing any functionality that is only available to the owner."
      },
      "symbol()": {
        "details": "Returns the symbol of the token, usually a shorter version of the name."
      },
      "totalSupply()": {
        "details": "See {IERC20-totalSupply}."
      },
      "transfer(address,uint256)": {
        "details": "See {IERC20-transfer}. Requirements: - `recipient` cannot be the zero address. - the caller must have a balance of at least `amount`."
      },
      "transferFrom(address,address,uint256)": {
        "details": "See {IERC20-transferFrom}. Emits an {Approval} event indicating the updated allowance. This is not required by the EIP. See the note at the beginning of {ERC20}. Requirements: - `sender` and `recipient` cannot be the zero address. - `sender` must have a balance of at least `amount`. - the caller must have allowance for ``sender``'s tokens of at least `amount`."
      },
      "transferOwnership(address)": {
        "details": "Transfers ownership of the contract to a new account (`newOwner`). Can only be called by the current owner."
      }
    },
    "version": 1
  },
  "userdoc": {
    "kind": "user",
    "methods": {},
    "version": 1
  }
}